:020000040000fa
:080000000002040000000000f2
:020000040000fa
:100008009a0200009a0200009a0200009a02000078
:100018009a0200009a0200009a0200009a02000068
:100028009a0200009a0200009a0200009a02000058
:100038009a0200009a0200009a0200009a02000048
:020000040000fa
:020000040000fa
:100400000f8020000e7f22000e01880000000000f7
:10041000000020000000e000020032000001200087
:10042000200288000c00070000342000010020009a
:1004300011000700000020000000e0000200320070
:1004400000000200000000000003020000000000a5
:100450000040da000000fe004440a9000000200037
:100460000000e0000300320000002000a00188002e
:100470004440a80000000600910188008000780038
:100480000000eb0015003700e280400032a0b4000d
:100490009101ba00e280400032a0b4009102ba009b
:1004a000e280400032a0b4000002eb00472bde00e7
:1004b000f507b200602ce10004003a000059eb009f
:1004c0008301e900fdff3e00040037006128e100e0
:1004d000010032000082eb00040007001101ba00a5
:1004e0000200e000e8ff3a00000006003159ba00bf
:1004f0008301e9000c0032002159ba008301e900b0
:10050000080032000400e00003003a00e2804000ee
:1005100032a0b400f5ff370011d9ba008301e90019
:10052000faff3a008100e800e180400032a0b40008
:0c053000000006000040da000000fe00a1
:020000040000fa
:10053c000600fa00f4ff2f0005002000048fbe0017
:10054c000002eb00240798000002eb00240798003f
:10055c0014003700f4ff2f0005002000048fbe00ac
:10056c00000000001e0290001e02720004f0a700a2
:10057c000402ea000402ea004f22de000442780082
:10058c000083eb008083eb001e0f43005e974b0053
:10059c00e04f5200f3ff3a002e0290000402e800f4
:1005ac00240798002e029000e90f5200e9ff340056
:1005bc000080fa00000006000200fa00441f200030
:1005cc00040f7800000000001e02780004f0a70061
:1005dc000402ea000402ea004f22de000442780022
:1005ec001e0fe900e04f5200f7ff3a000080fa00be
:1005fc00000006000400fa00000f780011079800b4
:10060c00040028000416880014002000341688000a
:10061c000082eb006419880005e1a8000421a90000
:10062c00ca62a800ca42a9000002eb002416880086
:10063c00010037000000000015168000040028009f
:10064c0004826200e00f520003003200f40f20001d
:10065c0024168800f8ff37004416800061026200ff
:10066c00e00f5200f3ff3200a40a20002416880089
:04067c00f1ff370053
:020000040000fa
:040680000000000076
:020000040000fa
:020000040002f8
:04aff800bdfa00009e
:020000040000fa
:020000040002f8
:04affc007f3f000093
:00000001FF
