:020000040000fa
:080000000002040000000000f2
:020000040000fa
:100008009a0200009a0200009a0200009a02000078
:100018009a0200009a0200009a0200009a02000068
:100028009a0200009a0200009a0200009a02000058
:100038009a0200009a0200009a0200009a02000048
:020000040000fa
:020000040000fa
:100400004f8020000e7f22000e01880000000000b7
:10041000000020000000e000020032000001200087
:10042000200288000c000700c04a200001002000c4
:1004300011000700000020000000e0000200320070
:10044000000002000000000078040200000000002c
:100450000040da000000fe004440a9000000200037
:100460000000e0000300320000002000a00188002e
:100470004440a80000000600910188008000780038
:100480000000eb0015003700e280400032a0b4000d
:100490009101ba00e280400032a0b4009102ba009b
:1004a000e280400032a0b4000002eb00472bde00e7
:1004b000f507b200602ce10004003a000059eb009f
:1004c0008301e900fdff3e00040037006128e100e0
:1004d000010032000082eb00040007001101ba00a5
:1004e0000200e000e8ff3a00000006003159ba00bf
:1004f0008301e9000c0032002159ba008301e900b0
:10050000080032000400e00003003a00e2804000ee
:1005100032a0b400f5ff370011d9ba008301e90019
:10052000faff3a008100e800e180400032a0b40008
:0c053000000006000040da000000fe00a1
:020000040000fa
:10053c000200fa0001e6a80001a6a9000430800020
:10054c0004b0a10004c0a100043088000146a90039
:10055c000126a8000106a800043080000460a10058
:10056c000470a1000430880000a6a8000086a90031
:10057c000066a9000046a8000026a9000006a900f4
:10058c001430800004d0a10004e0a10014308800d5
:10059c001430800004b0a10004c0a1001430880005
:1005ac000346a900143080000480a0000490a00031
:1005bc0014308800143080000460a0000470a00087
:1005cc0014308800143080000420a0000430a000f7
:1005dc000440a0000450a0001430880014308000a7
:1005ec000400a0000410a0001430880004002c00ab
:1005fc002430880014002000643088000002eb00d6
:10060c00040f7800010037001e0fe800f4c3290026
:10061c009e027800848f5200fbff360021cab30083
:10062c000040eb00a40007000002eb00040f780070
:10063c00010037001e0fe800740220009e027800b3
:10064c00848f5200fbff360001cab3000040eb0060
:10065c00990007000002eb00040f7800010037003e
:10066c001e0fe8001e027800f30f5200fcff36004c
:10067c0081ccb3000040eb008f0007000002eb00c0
:10068c00040f7800010037001e0fe8001e027800ee
:10069c00f30f5200fcff360001ccb3000040eb001e
:1006ac00850007000002eb00040f78000100370002
:1006bc001e0fe8001e027800f30f5200fcff3600fc
:1006cc0001c4b3000040eb007b0007000002eb000c
:1006dc00040f7800010037001e0fe8001e0278009e
:1006ec00f30f5200fcff360051c2b3000040eb0088
:1006fc00710007000002eb00040f780001003700c6
:10070c001e0fe8001e027800f30f5200fcff3600ab
:10071c0011c8b3000040eb00670007000002eb00bb
:10072c00040f7800010037001e0fe8001e0278004d
:10073c00f30f5200fcff360091c1b3000040eb00f8
:10074c005d0007000002eb00040f78000100370089
:10075c001e0fe8001e027800f30f5200fcff36005b
:10076c00f1c2b3000040eb00530007000002eb00a5
:10077c00040f7800010037001e0fe8001e027800fd
:10078c00f30f5200fcff3600f1cab3000040eb003f
:10079c00490007000002eb00040f7800010037004d
:1007ac001e0fe800740c20009e027800848f52000b
:1007bc00fbff3600310007000080fa000000060045
:1007cc000200fa000042eb00044f780022003700d0
:1007dc0004cbb3001e427200844078000040eb0052
:1007ec00350007001e4290006f4262008440780082
:1007fc000040eb00300007001e4290000482fb001a
:10080c004422de00044278000444a00084407800b6
:10081c000040eb00280007000042eb001447980052
:10082c000900370001ceb3000040eb0022000700a6
:10083c009e40780010c0b3001f0007001e429000bd
:10084c000442e800144798001e429000e04f52000a
:10085c00f4ff3d001e4fe8001e427800e74f5200a7
:10086c00dbff36000080fa00000006000000fa00f2
:10087c00044078000080fa00000006000200fa0034
:10088c000042eb00044f78000600370004cbb300a5
:10089c001e427200844078000040eb000600070006
:1008ac001e4fe8001e427800e74f5200f7ff36005b
:1008bc000080fa00000006000200fa00004f7800e9
:1008cc00114798009e4278000582fb002430880076
:1008dc001e4290000482fb00443088000080fa0025
:1008ec00000006000000fa0040a7a900c0c6a9003d
:1008fc00c0c2a9000eff0700b1ff0700442c200066
:10090c001460a2006022b8000440880015408800e2
:10091c000600370004408000154080006102420050
:10092c00e0824a00044088001540880006408000a0
:10093c0017408000f452270005002000840f53005c
:0c094c00858f5b00f3ff3600ebff3700e7
:020000040000fa
:100958000008000004000000000000000000000083
:020000040000fa
:020000040002f8
:04aff8005dfa0000fe
:020000040000fa
:020000040002f8
:04affc007f3f000093
:00000001FF
