:020000040000fa
:080000000002040000000000f2
:020000040000fa
:10000800cc0200009a020000a0020000a802000032
:10001800ae020000cc020000cc020000cc020000be
:10002800cc020000cc020000cc020000a8080000ae
:10003800cc020000cc020000cc020000cc02000080
:10004800cc020000cc020000de080000cc02000058
:10005800cc020000cc020000cc020000cc02000060
:10006800cc020000cc020000cc020000cc02000050
:10007800cc020000cc020000cc020000cc02000040
:10008800cc020000cc020000cc020000cc02000030
:10009800cc020000cc020000cc020000cc02000020
:1000a800cc020000cc020000cc020000cc02000010
:1000b800cc020000cc020000cc020000cc02000000
:1000c800cc020000cc020000cc020000cc020000f0
:1000d800cc020000cc020000cc020000cc020000e0
:1000e800cc020000cc020000cc020000cc020000d0
:1000f800cc020000cc020000cc020000cc020000c0
:10010800cc020000cc020000cc020000cc020000af
:10011800cc020000cc020000cc020000cc0200009f
:10012800cc020000cc020000cc020000cc0200008f
:10013800cc020000cc020000cc020000cc0200007f
:10014800cc020000cc020000cc020000cc0200006f
:10015800cc020000cc020000cc020000cc0200005f
:10016800cc020000cc020000cc020000cc0200004f
:10017800cc020000cc020000cc020000cc0200003f
:10018800cc020000cc020000cc020000cc0200002f
:10019800cc020000cc020000cc020000cc0200001f
:1001a800cc020000cc020000cc020000cc0200000f
:1001b800cc020000cc020000cc020000cc020000ff
:1001c800cc020000cc020000cc020000cc020000ef
:1001d800cc020000cc020000cc020000cc020000df
:1001e800cc020000cc020000cc020000cc020000cf
:0801f800cc020000cc02000063
:020000040000fa
:10020800cc020000b4020000ba020000c0020000e4
:10021800c6020000cc020000cc020000cc020000a4
:10022800cc020000cc020000cc020000a8080000ac
:10023800cc020000cc020000cc020000cc0200007e
:10024800cc020000cc020000de080000cc02000056
:10025800cc020000cc020000cc020000cc0200005e
:10026800cc020000cc020000cc020000cc0200004e
:10027800cc020000cc020000cc020000cc0200003e
:10028800cc020000cc020000cc020000cc0200002e
:10029800cc020000cc020000cc020000cc0200001e
:1002a800cc020000cc020000cc020000cc0200000e
:1002b800cc020000cc020000cc020000cc020000fe
:1002c800cc020000cc020000cc020000cc020000ee
:1002d800cc020000cc020000cc020000cc020000de
:1002e800cc020000cc020000cc020000cc020000ce
:1002f800cc020000cc020000cc020000cc020000be
:10030800cc020000cc020000cc020000cc020000ad
:10031800cc020000cc020000cc020000cc0200009d
:10032800cc020000cc020000cc020000cc0200008d
:10033800cc020000cc020000cc020000cc0200007d
:10034800cc020000cc020000cc020000cc0200006d
:10035800cc020000cc020000cc020000cc0200005d
:10036800cc020000cc020000cc020000cc0200004d
:10037800cc020000cc020000cc020000cc0200003d
:10038800cc020000cc020000cc020000cc0200002d
:10039800cc020000cc020000cc020000cc0200001d
:1003a800cc020000cc020000cc020000cc0200000d
:1003b800cc020000cc020000cc020000cc020000fd
:1003c800cc020000cc020000cc020000cc020000ed
:1003d800cc020000cc020000cc020000cc020000dd
:1003e800cc020000cc020000cc020000cc020000cd
:0803f800cc020000cc02000061
:020000040000fa
:100400002f1921000e7f22000e018800000000003d
:10041000000020000000e000020032000001200087
:10042000200288000c000700a0de20000100200050
:1004300011000700000020000000e0000200320070
:100440000000020000000000b804020000000000ec
:100450000040da000000fe004440a9000000200037
:100460000000e0000300320000002000a00188002e
:100470004440a80000000600910188008000780038
:100480000000eb0015003700e280400032a0b4000d
:100490009101ba00e280400032a0b4009102ba009b
:1004a000e280400032a0b4000002eb00472bde00e7
:1004b000f507b200602ce10004003a000059eb009f
:1004c0008301e900fdff3e00040037006128e100e0
:1004d000010032000082eb00040007001101ba00a5
:1004e0000200e000e8ff3a00000006003159ba00bf
:1004f0008301e9000c0032002159ba008301e900b0
:10050000080032000400e00003003a00e2804000ee
:1005100032a0b400f5ff370011d9ba008301e90019
:10052000faff3a008100e800e180400032a0b40008
:10053000000006000000fa008020a900ffff37003d
:100540000000fa008060a9000080fa000040060068
:100550000000fa008040a900ffff37000000fa0009
:100560008080a900ffff37000000fa008020a9006a
:10057000ffff37000000fa008060a900ffff37008e
:100580000000fa008040a900ffff37000000fa00d9
:100590008080a900ffff37000040da000000fe0065
:1005a0000000fa00000000003410800061026200c8
:1005b000e00f5200fcff3a0034108000620262003b
:1005c000e00f5200f8ff3a0034108000640262002d
:1005d000e00f5200f4ff3a0034108000680262001d
:1005e000e00f5200f0ff3a00341080007002620009
:1005f000e00f5200ecff3a00451080000400240098
:1006000004826200e00f5200e7ff3a000080fa0027
:10061000000006000000fa0000000000b410800096
:1006200061026200e00f5200fcff3a00b41080004b
:1006300062026200e00f5200f8ff3a00b41080003e
:1006400064026200e00f5200f4ff3a00b410800030
:1006500068026200e00f5200f0ff3a00b410800020
:1006600070026200e00f5200ecff3a00c5108000fb
:100670000400240004826200e00f5200e7ff3a0009
:100680000080fa00000006000800fa001007980039
:1006900021079800320798000002eb00040f780051
:1006a000270037000662a800080037009e02780085
:1006b0003e029000848f5200020031001e0fe800bd
:1006c000020037001e029000210037009a00070048
:1006d00000427800e04f5200f4ff32000002eb00cd
:1006e000040f780004108000844278002e029000ed
:1006f000054a78002e0290000402e80024079800c2
:100700001e0290000402e900140798001e029000e7
:10071000e00f520003003a0006a2a8000682a800db
:100720000300370006a2a9000682a800000000000e
:100730003410800070026200e00f5200fcff3a00ab
:100740001e029000e00f5200d6ff3a000002eb00bc
:10075000040078000080fa00000006000800fa009b
:100760001007980021079800320798000002eb005c
:10077000040f7800270037001662a8000800370031
:100780009e0278003e029000848f520002003100e9
:100790001e0fe800020037001e0290002100370003
:1007a0006c00070000427800e04f5200f4ff320076
:1007b0000002eb00040f780084108000844278006f
:1007c0002e029000054a78002e0290000402e800f4
:1007d000240798001e0290000402e9001407980004
:1007e0001e029000e00f520003003a0016a2a8007b
:1007f0001682a8000300370016a2a9001682a800de
:1008000000000000b410800070026200e00f52008f
:10081000fcff3a001e029000e00f5200d6ff3a00a3
:100820000002eb00040078000080fa0000000600df
:100830000200fa00004f78009e4278000582fb001b
:100840001410880045108000040820000482620013
:10085000e00f52000200320000c2eb00010037003e
:100860000042eb00044078000080fa00000006001f
:100870000200fa00004f78009e4278000582fb00db
:1008800094108800c51080000408200004826200d3
:10089000e00f52000200320000c2eb0001003700fe
:1008a0000042eb00044078000080fa0000000600df
:1008b0000400fa00000f7800110798001e02900053
:1008c000241088001e027800341088000080fa008e
:1008d000000006000400fa00000f780011079800dd
:1008e0001e029000a41088001e027800b410880038
:1008f0000080fa00000006000000fa000602a800ce
:100900000080fa00000006000000fa001602a800ad
:100910000080fa00000006000000fa000642a8006d
:100920000080fa00000006000000fa001642a8004d
:100930000080fa00000006000000fa004410800069
:100940000402d10061426200044078000080fa0095
:10095000000006000000fa00c41080000402d1006c
:1009600061426200044078000080fa000000060046
:020000040000fa
:100970003000fa000042eb00044f78000042eb0028
:10098000144798000042eb00244798000042eb0017
:10099000344798000042eb00444798000042eb00c7
:1009a000544798000002eb00340798000002eb0067
:1009b000540798000002eb00640798000002eb0067
:1009c0007407980040a7a900c0c6a900c0c2a9002a
:1009d000c002a900c022a900c0a2a900c082a9002b
:1009e000c0e2a800d2c2a800d2e2a800d3a2a80008
:1009f00073020700c1030700310120000000280036
:100a0000abff07003101200000002800b1ff070004
:100a10000f0307000002eb00348c88000041eb005c
:100a2000b1c6b30020cdb3009c020700b30107009c
:100a300004c2b300445f980004c2b300545f98003e
:100a400004c2b300645f980004c2b300745f9800ee
:100a500094c7b3006467980004c2b3007467980039
:100a600004c2b300046f9800a4c7b300146f9800c9
:100a70001400200044079800010037000000000027
:100a8000be02900004e22400848f52000c003a0061
:100a90000002eb00340798005382200042822000bd
:100aa000c1c0b300c0c6b300c50207005382200016
:100ab0004282200041c0b300c0c6b300c00207009c
:100ac000348c8000e10f5200ecff3a003e029000af
:100ad0000402e800340798004e029000e00f520034
:100ae00051003200054180006482200004824200ef
:100af0006300200004017800b1c3b30020cdb3002f
:100b000079020700054180006482200004824200cf
:100b100014427800e14f42000b003a00044180008b
:100b20008402e800648220000482420014427800bb
:100b3000e14f420004003a000041eb00b1c6b300af
:100b400020cdb300550207000541800064822000db
:100b500004824200144f7800044180008402e800bf
:100b600064822000048242001440780010479800fc
:100b7000044180008482e8006482200004824200f4
:100b8000944078002147980004418000e30242002d
:100b90006482200004824200944278003547980025
:100ba00004418000e402420064822000048242008a
:100bb000144378004647980004418000e502420053
:100bc000648220000482420014407800504798005c
:100bd000044180006c02420004418800054180000d
:100be000f44a2000848f5200020036000002eb001d
:100bf0000441880014c4b3007457980034c4b3008f
:100c0000045f980034c4b300145f980054c4b30068
:100c1000245f9800c4c4b300345f98000002eb0066
:100c2000440798003f003700858c800064822000d4
:100c300004824200630020000401780031c4b30044
:100c400020cdb30028020700858c8000648220003c
:100c500004824200144f7800848c80008402e800f3
:100c6000648220000482420094407800114798007a
:100c7000848c80008482e800648220000482420028
:100c80009442780025479800848c8000e30242005b
:100c900064822000048242001443780036479800a2
:100ca000848c8000e40242006482200004824200be
:100cb0001440780040479800848c8000e502420090
:100cc00064822000048242009440780051479800da
:100cd000848c80006c024200848c8800858c8000ab
:100ce000544b2000848f5200020036006400200024
:100cf000848c880074c4b3007457980094c5b30002
:100d0000045f980024c5b300145f9800f4c4b300d6
:100d1000245f980004c2b300345f980014002000e0
:100d20004407980070024700840078000040eb0000
:100d300075030700040220000e02420084007800c0
:100d400010c0b300700307000002eb00348c880071
:100d50001e4290008482fb001e4378000682fb0046
:100d60004822dd0005027200540798005e029000e0
:100d7000e00f520002003d00d4c2b3000100370072
:100d800004c2b300045798005e02900004f0a7006c
:100d90000402ea00540798003e4290008482fb005f
:100da0002e4290000482fb004822dd000502720002
:100db000640798006e029000e00f520002003d00b0
:100dc000d4c2b3000100370004c2b3000467980026
:100dd0006e02900004f0a7000402ea006407980085
:100de0005e4290008482fb004e4290000482fb0031
:100df0004822dd0005027200740798007e02900010
:100e0000e00f520002003d00d4c2b30001003700e1
:100e100004c2b300246f98007e02900004f0a70083
:100e20000402ea0074079800de029000a40020008b
:100e3000110009008402d800010278000442780001
:100e40000443b00054579800de029000a400200034
:100e5000110009008402d8000002780084027800a2
:100e6000a4002000110009008402d80001027800cb
:100e7000044278000443b00044579800de0290001a
:100e800044062000110009008402d8000002780006
:100e900084027800a4002000110009008402d80018
:100ea00001027800044278000443b00034579800ef
:100eb000de029000843e2000110009008402d80068
:100ec0000002780084027800a400200011000900cc
:100ed0008402d80001027800044278000443b00084
:100ee00024579800de0290000471220011000900ce
:100ef0008402d8000002780084027800a400200058
:100f0000110009008402d800010278000442780030
:100f10000443b00014579800ee029000a400200093
:100f2000110009008402d800010278000442780010
:100f30000443b00054679800ee029000a400200023
:100f4000110009008402d8000002780084027800b1
:100f5000a4002000110009008402d80001027800da
:100f6000044278000443b00044679800ee02900009
:100f700044062000110009008402d8000002780015
:100f800084027800a4002000110009008402d80027
:100f900001027800044278000443b00034679800ee
:100fa000ee029000843e2000110009008402d80067
:100fb0000002780084027800a400200011000900db
:100fc0008402d80001027800044278000443b00093
:100fd00024679800ee0290000471220011000900bd
:100fe0008402d8000002780084027800a400200067
:100ff000110009008402d800010278000442780040
:101000000443b00014679800fe029000a400200082
:10101000110009008402d80001027800044278001f
:101020000443b000746f9800fe029000a4002000fa
:10103000110009008402d8000002780084027800c0
:10104000a4002000110009008402d80001027800e9
:10105000044278000443b000646f9800fe029000e0
:1010600044062000110009008402d8000002780024
:1010700084027800a4002000110009008402d80036
:1010800001027800044278000443b000546f9800d5
:10109000fe029000843e2000110009008402d80066
:1010a0000002780084027800a400200011000900ea
:1010b0008402d80001027800044278000443b000a2
:1010c000446f9800fe029000047122001100090094
:1010d0008402d8000002780084027800a400200076
:1010e000110009008402d80001027800044278004f
:1010f0000443b000346f980061fe37000000fa002e
:101100000002eb00040888000002eb0024088800bd
:10111000843e2000140888002405800004c0a1003b
:1011200004d0a00004e0a100240588008460a90088
:10113000240880000440a0000450a1002408880076
:101140009460a80005e1a8000080fa0000000600f5
:10115000849fbe00861f78003400f8000400200041
:10116000a40188000000fa00241680004422de005a
:101170006142620004c2ea00614262000482fb0034
:10118000610262004422dd0026168000f5fe2f0079
:1011900085026300050272002416880014002000f6
:1011a000348c88008460a9000080fa003400f900c3
:1011b0004f0378004f02be0000400600849fbe002f
:1011c000861f78003400f80004002000a401880085
:1011d0000400fa000042eb00244798000002eb00f4
:1011e0000441880064002000848c88000002eb0029
:1011f000040f780000000000041280006102620009
:10120000e00f5200fcff3200441280002447980097
:10121000ae42900014c4b30084cf520039003a00ab
:101220001404200044128800000000000412800012
:1012300061026200e00f5200fcff320044128000a5
:10124000040f780064c5b300244798000002eb0047
:10125000040f780014003700144180009e02420001
:101260006482200004824200144278000482fb0061
:101270004412880000000000041280006102620035
:10128000e00f5200fcff3200144180001e034200b8
:10129000441280008442780064cd200004024300a0
:1012a000054a78001e0fe8001e027800eb0f52007e
:1012b000e9ff3600144180006c02420014418800ae
:1012c00015418000f44a2000848f5200020036004d
:1012d0000002eb00144188002e4290000482fb00c3
:1012e00044128800000000000412800061026200c5
:1012f000e00f5200fcff320044128000040f78001f
:1013000027003700ae42900024c4b30084cf5200bf
:1013100020003a002404200044128800000000004d
:101320000412800061026200e00f5200fcff3200f4
:101330004412800024479800448220001442780020
:101340000482fb00441288000000000004128000a8
:1013500061026200e00f5200fcff32004412800084
:101360002447980054822000144278000482fb0035
:101370004412880000000000041280006102620034
:10138000e00f5200fcff3200441280002447980016
:1013900003003700540420004412880040c2a90012
:1013a000a4052000441288008540a9000080fa00ae
:1013b0003400f9004f0378004f02be0000400600e1
:1013c0000000fa0041e2a90041a2a9000002eb00de
:1013d000441288008540a9009540a800440580007b
:1013e0000480a0000490a00004a0a100440588008f
:1013f0004382a9004362a9004342a9004322a900f5
:1014000042c2a9004302a90042a2a900141280000e
:101410000420a1000430a1000440a00014128800a0
:10142000141280000400a1000410a000141288000f
:101430000002eb0024128800c842a800c642a9009e
:1014400041e2a8000080fa00000006000200fa0055
:10145000000f78001e027800441288000700370051
:10146000051280000404200004826200e00f520094
:10147000020032000002eb00041288000412800017
:1014800061026200e00f5200f5ff3200441280005a
:10149000040078000080fa00000006000400fa0052
:1014a000004f7800114798002247980012fd07006e
:1014b0003bfc07001e407800ddfc070038fc0700fd
:1014c0001e409000dafc070035fc07002e4090001b
:1014d000d7fc070032fc07000ffd070030fc0700b7
:1014e0000080fa00000006000600fa00004f7800b5
:1014f000114798001207980023079800fefc070088
:1015000027fc07001e407800c9fc070024fc0700e8
:101510001e409000c6fc070021fc0700fefc0700ef
:101520001ffc0700f4fc07001dfc07001e427800aa
:101530000404a00004407800bdfc070018fc07006c
:101540002e029000e20120009e009000040078002e
:101550004dfc0700f0fc070011fc07000080fa00ba
:10156000000006000400fa00004f780011479800c0
:101570002247980033479800e3fc070025fc07004a
:101580001e407800bafc070022fc07001e409000b5
:10159000b7fc07001ffc07002e409000b4fc0700ba
:1015a0001cfc07003e409000b1fc070019fc07003e
:1015b000ddfc070017fc07000080fa0000000600b1
:1015c0000800fa0020479800314798002207980049
:1015d00033079800ccfc07000efc07002e4090005b
:1015e000a3fc07000bfc07003e409000a0fc070096
:1015f00008fc0700ccfc070006fc0700c2fc070043
:1016000004fc07002e4290000404a000044078006f
:1016100097fc0700fffb0700e20120008e00780026
:10162000200020004dfc07009e4278002e02900012
:10163000054a78009e4290003e029000054a7800dc
:10164000b9fc0700f3fb07000080fa000000060069
:101650000000fa0000c1eb0091c1b30020cdb3003f
:101660008eff07000041eb00a1c1b30020cdb30005
:101670008aff070082c0b300b1c1b30020cdb30020
:1016800086ff07000041eb00c1c1b30020cdb300cd
:1016900082ff07000041eb00d1c1b30020cdb300b1
:1016a0007eff07000041eb00e1c1b30020cdb30095
:1016b0007aff07000041eb00f1c1b30020cdb30079
:1016c00076ff07000041eb0001c2b30020cdb3005c
:1016d00072ff07000041eb0011c2b30020cdb30040
:1016e0006eff07000041eb0021c2b30020cdb30024
:1016f0006aff07000041eb0031c2b30020cdb30008
:1017000066ff07000041eb0041c2b30020cdb300eb
:1017100062ff07000041eb0051c2b30020cdb300cf
:101720005eff07000041eb0061c2b30020cdb300b3
:101730005aff07000041eb0071c2b30020cdb30097
:1017400056ff07000041eb0081c2b30020cdb3007b
:1017500052ff07000041eb0091c2b30020cdb3005f
:101760004eff07000041eb00a1c2b30020cdb30043
:101770004aff07000041eb00b1c2b30020cdb30027
:1017800046ff07000041eb00c1c2b30020cdb3000b
:1017900042ff07000041eb00d1c2b30020cdb300ef
:1017a0003eff07000041eb00e1c2b30020cdb300d3
:1017b0003aff07000041eb00f1c2b30020cdb300b7
:1017c00036ff07000041eb0001c3b30020cdb3009a
:1017d00032ff07000041eb0011c3b30020cdb3007e
:1017e0002eff07000041eb0021c3b30020cdb30062
:1017f0002aff07000041eb0031c3b30020cdb30046
:1018000026ff07000041eb0041c3b30020cdb30029
:1018100022ff07000041eb0051c3b30020cdb3000d
:101820001eff07000041eb0071c3b30020cdb300e1
:101830001aff07000041eb0081c3b30020cdb300c5
:1018400016ff07000041eb0031c6b30020cdb30006
:1018500012ff07000041eb0041c6b30020cdb300ea
:101860000eff07000041eb0051c6b30020cdb300ce
:101870000aff07000041eb0061c6b30020cdb300b2
:1018800006ff07000041eb0071c6b30020cdb30096
:1018900002ff07000041eb0081c6b30020cdb3007a
:1018a000fefe07000041eb0091c6b30020cdb3005f
:1018b000fafe07000041eb00a1c6b30020cdb30043
:1018c000f6fe070022c0b300b1c6b30020cdb300be
:1018d000f2fe07000041eb00c1c6b30020cdb3000b
:1018e000eefe07000041eb0041c7b30020cdb3007e
:1018f000eafe07000080fa00000006000200fa007d
:1019000001e6a80001a6a9000430800004b0a100ef
:1019100004c0a100043088000146a9000126a800e7
:101920000106a800043080000460a1000470a0003b
:101930000430880000a6a8000086a8000066a80061
:101940000046a8000026a8000006a8001430800069
:1019500004d0a10004e0a1001430880014308000fd
:1019600004b0a10004c0a100143088000346a900ff
:10197000143080000480a0000490a000143088007f
:10198000143080000460a0000470a00014308800af
:10199000143080000420a0000430a0000440a00007
:1019a0000450a00014308800143080000400a0000f
:1019b0000410a000143088000002eb0024308800de
:1019c00014002000643088000002eb00040f78004f
:1019d000010037001e0fe800f4c329009e027800c2
:1019e000848f5200fbff3600c1c3b3000040eb0000
:1019f0003a0007000002eb00040f780001003700f6
:101a00001e0fe800740220009e027800848f5200ae
:101a1000fbff3600c1c0b3000040eb002f00070001
:101a20000002eb00040f7800010037001e0fe800f1
:101a30001e027800f30f5200fcff360061c0b300b5
:101a40000040eb00250007000002eb00040f7800c7
:101a5000010037001e0fe8001e027800f30f52004d
:101a6000fcff360001c1b3000040eb001b00070083
:101a70000002eb00040f7800010037001e0fe800a1
:101a8000740c20009e027800848f5200fbff360009
:101a90000c0007000080fa00000006000000fa00b9
:101aa0000002eb002430880044308000844278003b
:101ab00004c8b30004c26200044078000080fa0049
:101ac000000006000000fa0011c0b3000040eb0067
:101ad000020007000080fa00000006000200fa0081
:101ae000004f7800114798009e4278000582fb0065
:101af000243088001e4290000482fb00443088009d
:101b00000080fa00000006000600fa002047980056
:101b1000210798000042eb001447980003003700ab
:101b20001e4290000442e800144798001e429000b4
:101b3000e74f4200faff36002e429000e04f52007d
:101b400004003a0001c8b3000040eb00e3ff0700c7
:101b5000060037002e429000e14f520003003a0089
:101b600001ccb3000040eb00dcff07000042eb00bb
:101b7000044f7800120037000042eb001447980031
:101b8000030037001e4290000442e800144798000a
:101b90001e429000fd4f5200faff36002e029000c8
:101ba000144278008440780010c0b300cbff0700d7
:101bb0002e0290000402e800240798001e4fe8005f
:101bc0001e427800ef4f5200ebff36000080fa0013
:041bd000000006000b
:020000040000fa
:101bd4008c11000004000000000000000008000058
:101be4008c090000000000009011000002000000b9
:0c1bf400020000000600000000000000dd
:020000040000fa
:020000040002f8
:04aff8005efb0000fc
:020000040000fa
:020000040002f8
:04affc007f3f000093
:00000001FF
