:020000040000fa
:080000000002040000000000f2
:020000040000fa
:10000800cc0200009a020000a0020000a802000032
:10001800ae020000cc020000cc020000cc020000be
:10002800cc020000cc020000cc02000080070000d7
:10003800cc020000cc020000cc020000cc02000080
:10004800cc020000cc020000b6070000cc02000081
:10005800cc020000cc020000cc020000cc02000060
:10006800cc020000cc020000cc020000cc02000050
:10007800cc020000cc020000cc020000cc02000040
:10008800cc020000cc020000cc020000cc02000030
:10009800cc020000cc020000cc020000cc02000020
:1000a800cc020000cc020000cc020000cc02000010
:1000b800cc020000cc020000cc020000cc02000000
:1000c800cc020000cc020000cc020000cc020000f0
:1000d800cc020000cc020000cc020000cc020000e0
:1000e800cc020000cc020000cc020000cc020000d0
:1000f800cc020000cc020000cc020000cc020000c0
:10010800cc020000cc020000cc020000cc020000af
:10011800cc020000cc020000cc020000cc0200009f
:10012800cc020000cc020000cc020000cc0200008f
:10013800cc020000cc020000cc020000cc0200007f
:10014800cc020000cc020000cc020000cc0200006f
:10015800cc020000cc020000cc020000cc0200005f
:10016800cc020000cc020000cc020000cc0200004f
:10017800cc020000cc020000cc020000cc0200003f
:10018800cc020000cc020000cc020000cc0200002f
:10019800cc020000cc020000cc020000cc0200001f
:1001a800cc020000cc020000cc020000cc0200000f
:1001b800cc020000cc020000cc020000cc020000ff
:1001c800cc020000cc020000cc020000cc020000ef
:1001d800cc020000cc020000cc020000cc020000df
:1001e800cc020000cc020000cc020000cc020000cf
:0801f800cc020000cc02000063
:020000040000fa
:10020800cc020000b4020000ba020000c0020000e4
:10021800c6020000cc020000cc020000cc020000a4
:10022800cc020000cc020000cc02000080070000d5
:10023800cc020000cc020000cc020000cc0200007e
:10024800cc020000cc020000b6070000cc0200007f
:10025800cc020000cc020000cc020000cc0200005e
:10026800cc020000cc020000cc020000cc0200004e
:10027800cc020000cc020000cc020000cc0200003e
:10028800cc020000cc020000cc020000cc0200002e
:10029800cc020000cc020000cc020000cc0200001e
:1002a800cc020000cc020000cc020000cc0200000e
:1002b800cc020000cc020000cc020000cc020000fe
:1002c800cc020000cc020000cc020000cc020000ee
:1002d800cc020000cc020000cc020000cc020000de
:1002e800cc020000cc020000cc020000cc020000ce
:1002f800cc020000cc020000cc020000cc020000be
:10030800cc020000cc020000cc020000cc020000ad
:10031800cc020000cc020000cc020000cc0200009d
:10032800cc020000cc020000cc020000cc0200008d
:10033800cc020000cc020000cc020000cc0200007d
:10034800cc020000cc020000cc020000cc0200006d
:10035800cc020000cc020000cc020000cc0200005d
:10036800cc020000cc020000cc020000cc0200004d
:10037800cc020000cc020000cc020000cc0200003d
:10038800cc020000cc020000cc020000cc0200002d
:10039800cc020000cc020000cc020000cc0200001d
:1003a800cc020000cc020000cc020000cc0200000d
:1003b800cc020000cc020000cc020000cc020000fd
:1003c800cc020000cc020000cc020000cc020000ed
:1003d800cc020000cc020000cc020000cc020000dd
:1003e800cc020000cc020000cc020000cc020000cd
:0803f800cc020000cc02000061
:020000040000fa
:100400000f1921000e7f22000e018800000000005d
:10041000000020000000e000020032000001200087
:10042000200288000c000700c0c720000100200047
:1004300011000700000020000000e0000200320070
:100440000000020000000000d603020000000000cf
:100450000040da000000fe004440a9000000200037
:100460000000e0000300320000002000a00188002e
:100470004440a80000000600910188008000780038
:100480000000eb0015003700e280400032a0b4000d
:100490009101ba00e280400032a0b4009102ba009b
:1004a000e280400032a0b4000002eb00472bde00e7
:1004b000f507b200602ce10004003a000059eb009f
:1004c0008301e900fdff3e00040037006128e100e0
:1004d000010032000082eb00040007001101ba00a5
:1004e0000200e000e8ff3a00000006003159ba00bf
:1004f0008301e9000c0032002159ba008301e900b0
:10050000080032000400e00003003a00e2804000ee
:1005100032a0b400f5ff370011d9ba008301e90019
:10052000faff3a008100e800e180400032a0b40008
:10053000000006000000fa008020a900ffff37003d
:100540000000fa008060a9000080fa000040060068
:100550000000fa008040a900ffff37000000fa0009
:100560008080a900ffff37000000fa008020a9006a
:10057000ffff37000000fa008060a900ffff37008e
:100580000000fa008040a900ffff37000000fa00d9
:100590008080a900ffff37000040da000000fe0065
:1005a0000000fa00000000003410800061026200c8
:1005b000e00f5200fcff3a0034108000620262003b
:1005c000e00f5200f8ff3a0034108000640262002d
:1005d000e00f5200f4ff3a0034108000680262001d
:1005e000e00f5200f0ff3a00341080007002620009
:1005f000e00f5200ecff3a00451080000400240098
:1006000004826200e00f5200e7ff3a000080fa0027
:10061000000006000800fa00100798002107980063
:10062000320798000002eb00040f78002700370023
:100630000662a800080037009e0278003e02900083
:10064000848f5200020031001e0fe80002003700c4
:100650001e029000210037004d0007000042780084
:10066000e04f5200f4ff32000002eb00040f78006c
:1006700004108000844278002e029000054a780021
:100680002e0290000402e800240798001e02900049
:100690000402e900140798001e029000e00f5200c7
:1006a00003003a0006a2a8000682a8000300370053
:1006b00006a2a9000682a8000000000034108000f5
:1006c00070026200e00f5200fcff3a001e02900030
:1006d000e00f5200d6ff3a000002eb000400780061
:1006e0000080fa00000006000200fa00004f7800c7
:1006f0009e4278000582fb0014108800451080009f
:100700000408200004826200e00f52000200320060
:1007100000c2eb00010037000042eb00044078000b
:100720000080fa00000006000400fa00000f7800c4
:10073000110798001e029000241088001e02780005
:10074000341088000080fa00000006000400fa005f
:10075000000f7800110798001e029000a410880076
:100760001e027800b41088000080fa000000060025
:100770000000fa000602a8000080fa00000006004f
:100780000000fa000642a8000080fa0000000600ff
:100790000000fa00441080000402d10061426200af
:0c07a000044078000080fa000000060011
:020000040000fa
:1007ac002e00fa000042eb00044f78000042eb00f0
:1007bc00144798000042eb00244798000042eb00dd
:1007cc00344798000042eb00444798000042eb008d
:1007dc00544798000002eb00440798000002eb001d
:1007ec00540798000002eb006407980040a7a9008a
:1007fc00c0c6a900c0c2a900c002a900c022a9009d
:10080c00c0a2a900c082a900c0e2a800d2c2a80060
:10081c00d2e2a800d3a2a8002e0207007d03070095
:10082c003101200000002800bcff0700310120002e
:10083c0000002800c2ff0700cb0207000041eb00bc
:10084c00b1c6b30020cdb300590207000002eb0083
:10085c00248c88009201070004c2b300245f980026
:10086c0004c2b300345f980004c2b300445f980024
:10087c0004c2b300545f980094c7b3004467980057
:10088c0004c2b3005467980004c2b30064679800b4
:10089c00a4c7b300746798001400200034079800b4
:1008ac000100370000000000c402a900c4c2a90066
:1008bc00c4a2a900c422a900248c8000e10f52001c
:1008cc00f8ff3a003e029000e00f52004000320068
:1008dc000541800044822000048242006300200015
:1008ec0004017800b1c3b30020cdb300430207006c
:1008fc00054180004482200004824200144f78009d
:10090c00044180008402e8004482200004824200fa
:10091c001440780010479800044180008482e8005d
:10092c0044822000048242009440780021479800c1
:10093c0004418000e3024200448220000482420011
:10094c00944278003547980004418000e40242004c
:10095c0044822000048242001443780046479800e9
:10096c0004418000e50242004482200004824200df
:10097c001440780050479800044180006c024200fb
:10098c000441880005418000f44a2000848f520005
:10099c00020036000002eb000441880014c4b300ce
:1009ac005457980034c4b3006457980034c4b3004f
:1009bc007457980054c4b300045f9800c4c4b300c7
:1009cc00145f98000002eb00340798003f003700da
:1009dc00758c800044822000048242006300200059
:1009ec000401780031c4b30020cdb300030207002a
:1009fc00758c80004482200004824200144f7800e1
:100a0c00748c80008402e80044822000048242003e
:100a1c009440780011479800748c80008482e80020
:100a2c0044822000048242009442780025479800ba
:100a3c00748c8000e3024200448220000482420055
:100a4c001443780036479800748c8000e40242000e
:100a5c0044822000048242001440780040479800f1
:100a6c00748c8000e5024200448220000482420023
:100a7c009440780051479800748c80006c024200be
:100a8c00748c8800758c8000544b2000848f52002d
:100a9c000200360064002000748c880074c4b3001b
:100aac005457980094c5b3006457980024c5b300fc
:100abc0074579800f4c4b300045f980004c2b300e8
:100acc00145f980014002000340798006e02470051
:100adc00840078000040eb00510307007e024700c1
:100aec008400780010c0b3004d0307000002eb0037
:100afc00248c88001e4290008482fb001e437800e8
:100b0c000682fb004822dd000502720044079800b3
:100b1c004e029000e00f520002003d00d4c2b30020
:100b2c000100370004c2b300644f98004e029000dd
:100b3c0004f0a7000402ea00440798003e4290002b
:100b4c008482fb002e4290000482fb004822dd00d0
:100b5c0005027200540798005e029000e00f5200ec
:100b6c0002003d00d4c2b3000100370004c2b30040
:100b7c00645f98005e02900004f0a7000402ea0093
:100b8c00540798005e4290008482fb004e42900015
:100b9c000482fb004822dd00050272006407980005
:100bac006e029000e00f520002003d00d4c2b30070
:100bbc000100370004c2b300046f98006e0290006d
:100bcc0004f0a7000402ea0064079800ce0290002b
:100bdc00a4002000110009008402d8000102780052
:100bec00044278000443b00034579800ce029000c1
:100bfc00a4002000110009008402d8000002780033
:100c0c0084027800a4002000110009008402d8009e
:100c1c0001027800044278000443b0002457980085
:100c2c00ce02900044062000110009008402d80076
:100c3c000002780084027800a40020001100090052
:100c4c008402d80001027800044278000443b0000a
:100c5c0014579800ce029000843e20001100090029
:100c6c008402d8000002780084027800a4002000de
:100c7c00110009008402d8000102780004427800b7
:100c8c000443b00004579800ce0290000471220077
:100c9c00110009008402d800000278008402780058
:100cac00a4002000110009008402d8000102780081
:100cbc00044278000443b000744f9800de029000a8
:100ccc00a4002000110009008402d8000102780061
:100cdc00044278000443b00034679800de029000b0
:100cec00a4002000110009008402d8000002780042
:100cfc0084027800a4002000110009008402d800ae
:100d0c0001027800044278000443b0002467980084
:100d1c00de02900044062000110009008402d80075
:100d2c000002780084027800a40020001100090061
:100d3c008402d80001027800044278000443b00019
:100d4c0014679800de029000843e20001100090018
:100d5c008402d8000002780084027800a4002000ed
:100d6c00110009008402d8000102780004427800c6
:100d7c000443b00004679800de0290000471220066
:100d8c00110009008402d800000278008402780067
:100d9c00a4002000110009008402d8000102780090
:100dac00044278000443b000745f9800ee02900097
:100dbc00a4002000110009008402d8000102780070
:100dcc00044278000443b000546f9800ee02900087
:100ddc00a4002000110009008402d8000002780051
:100dec0084027800a4002000110009008402d800bd
:100dfc0001027800044278000443b000446f98006c
:100e0c00ee02900044062000110009008402d80074
:100e1c000002780084027800a40020001100090070
:100e2c008402d80001027800044278000443b00028
:100e3c00346f9800ee029000843e200011000900ef
:100e4c008402d8000002780084027800a4002000fc
:100e5c00110009008402d8000102780004427800d5
:100e6c000443b000246f9800ee029000047122003d
:100e7c00110009008402d800000278008402780076
:100e8c00a4002000110009008402d800010278009f
:100e9c00044278000443b000146f980082fe3700bf
:100eac000000fa000002eb00040888000002eb00ce
:100ebc0024088800843e2000140888002405800043
:100ecc0004c0a10004d0a00004e0a1002405880007
:100edc008460a900240880000440a0000450a100f4
:100eec00240888009460a80005e1a8000080fa009e
:100efc0000000600849fbe00861f78003400f800b6
:100f0c0004002000a40188000000fa0024168000d0
:100f1c004422de006142620004c2ea0061426200c7
:100f2c000482fb00610262004422dd002616800070
:100f3c00f5fe2f008502630005027200241688005e
:100f4c0014002000248c88008460a9000080fa0022
:100f5c003400f9004f0378004f02be000040060039
:100f6c00849fbe00861f78003400f8000400200027
:100f7c00a40188000400fa000042eb00244798000a
:100f8c000002eb000441880064002000748c88008f
:100f9c000002eb00040f7800000000000412800037
:100fac0061026200e00f5200fcff3200441280002c
:100fbc0024479800ae42900014c4b30084cf520072
:100fcc0039003a001404200044128800000000008c
:100fdc000412800061026200e00f5200fcff32003c
:100fec0044128000040f780064c5b30024479800b5
:100ffc000002eb00040f780014003700144180004d
:10100c009e02420044822000048242001442780076
:10101c000482fb00441288000000000004128000cf
:10102c0061026200e00f5200fcff320014418000ac
:10103c001e034200441280008442780044cd2000fc
:10104c0004024300054a78001e0fe8001e027800d7
:10105c00eb0f5200e9ff3600144180006c02420095
:10106c001441880015418000f44a2000848f5200fe
:10107c00020036000002eb00144188002e42900062
:10108c000482fb004412880000000000041280005f
:10109c0061026200e00f5200fcff3200441280003b
:1010ac00040f780003003700540420004412880019
:1010bc0040c2a900a4052000441288008540a90064
:1010cc000080fa003400f9004f0378004f02be0094
:1010dc00004006000000fa0041e2a90041a2a9006c
:1010ec000002eb00441288008540a9009540a8003e
:1010fc00440580000480a0000490a00004a0a1007e
:10110c00440588004382a9004362a9004342a90018
:10111c004322a90042c2a9004302a90042a2a9008d
:10112c00141280000420a1000430a1000440a0008f
:10113c0014128800141280000400a1000410a000f6
:10114c00141288000002eb0024128800c842a80088
:10115c00c642a90041e2a8000080fa000000060087
:10116c000200fa00000f78001e027800441288007a
:10117c00070037000512800004042000048262007e
:10118c00e00f5200020032000002eb000412880053
:10119c000412800061026200e00f5200f5ff320081
:1011ac0044128000040078000080fa000000060061
:1011bc000400fa00004f780011479800224798006d
:1011cc0068fd0700f3fc07001e40780043fd070094
:1011dc00f0fc07001e40900040fd0700edfc0700ee
:1011ec002e4090003dfd0700eafc070061fd070062
:1011fc00e8fc07000080fa00000006000600fa0078
:10120c00004f7800114798001207980023079800a8
:10121c0054fd0700dffc07001e4078002ffd07007f
:10122c00dcfc07001e4090002cfd0700d9fc0700d9
:10123c0050fd0700d7fc07004afd0700d5fc07004e
:10124c001e4278000404a0000440780023fd07002f
:10125c00d0fc07002e029000e20120009e009000be
:10126c0004007800e8fc070042fd0700c9fc0700f9
:10127c000080fa00000006000400fa00004f78001d
:10128c0011479800224798003347980035fd070016
:10129c00c0fc07001e40780010fd0700bdfc0700d5
:1012ac001e4090000dfd0700bafc07002e40900078
:1012bc000afd0700b7fc07003e40900007fd070041
:1012cc00b4fc07002bfd0700b2fc07000080fa00fd
:1012dc00000006000a00fa002047980031479800e9
:1012ec002207980033079800440798001dfd07005b
:1012fc00a8fc07002e409000f8fc0700a5fc070096
:10130c003e409000f5fc0700a2fc070019fd070009
:10131c00a0fc070013fd07009efc07002e42900066
:10132c000404a00004407800ecfc070099fc0700c2
:10133c00e20120008e00780020002000b2fc0700a3
:10134c009e4278002e029000054a78009e42900042
:10135c003e029000054a780006fd07008dfc070050
:10136c000080fa00000006000000fa0000c1eb004b
:10137c0091c1b30020cdb3008dff07000041eb00fd
:10138c00a1c1b30020cdb30089ff070082c0b30018
:10139c00b1c1b30020cdb30085ff07000041eb00c5
:1013ac00c1c1b30020cdb30081ff07000041eb00a9
:1013bc00d1c1b30020cdb3007dff07000041eb008d
:1013cc00e1c1b30020cdb30079ff07000041eb0071
:1013dc00f1c1b30020cdb30075ff07000041eb0055
:1013ec0001c2b30020cdb30071ff07000041eb0038
:1013fc0011c2b30020cdb3006dff07000041eb001c
:10140c0021c2b30020cdb30069ff07000041eb00ff
:10141c0031c2b30020cdb30065ff07000041eb00e3
:10142c0041c2b30020cdb30061ff07000041eb00c7
:10143c0051c2b30020cdb3005dff07000041eb00ab
:10144c0061c2b30020cdb30059ff07000041eb008f
:10145c0071c2b30020cdb30055ff07000041eb0073
:10146c0081c2b30020cdb30051ff07000041eb0057
:10147c0091c2b30020cdb3004dff07000041eb003b
:10148c00a1c2b30020cdb30049ff07000041eb001f
:10149c00b1c2b30020cdb30045ff07000041eb0003
:1014ac00c1c2b30020cdb30041ff07000041eb00e7
:1014bc00d1c2b30020cdb3003dff07000041eb00cb
:1014cc00e1c2b30020cdb30039ff07000041eb00af
:1014dc00f1c2b30020cdb30035ff07000041eb0093
:1014ec0001c3b30020cdb30031ff07000041eb0076
:1014fc0011c3b30020cdb3002dff07000041eb005a
:10150c0021c3b30020cdb30029ff07000041eb003d
:10151c0031c3b30020cdb30025ff07000041eb0021
:10152c0041c3b30020cdb30021ff07000041eb0005
:10153c0051c3b30020cdb3001dff07000041eb00e9
:10154c0071c3b30020cdb30019ff07000041eb00bd
:10155c0081c3b30020cdb30015ff07000041eb00a1
:10156c0031c6b30020cdb30011ff07000041eb00e2
:10157c0041c6b30020cdb3000dff07000041eb00c6
:10158c0051c6b30020cdb30009ff07000041eb00aa
:10159c0061c6b30020cdb30005ff07000041eb008e
:1015ac0071c6b30020cdb30001ff07000041eb0072
:1015bc0081c6b30020cdb300fdfe07000041eb0057
:1015cc0091c6b30020cdb300f9fe07000041eb003b
:1015dc00a1c6b30020cdb300f5fe070022c0b300b6
:1015ec00b1c6b30020cdb300f1fe07000041eb0003
:1015fc00c1c6b30020cdb300edfe07000041eb00e7
:10160c0041c7b30020cdb300e9fe07000080fa000b
:10161c00000006000200fa0001e6a80001a6a900dd
:10162c000430800004b0a10004c0a1000430880084
:10163c000146a9000126a8000106a800043080007c
:10164c000460a1000470a0000430880000a6a8006b
:10165c000086a8000066a8000046a8000026a80086
:10166c000006a8001430800004d0a10004e0a10002
:10167c00143088001430800004b0a10004c0a10014
:10168c00143088000346a900143080000480a000a8
:10169c000490a00014308800143080000460a00076
:1016ac000470a00014308800143080000420a000c6
:1016bc000430a0000440a0000450a00014308800a6
:1016cc00143080000400a0000410a0001430880026
:1016dc000002eb00243088001400200064308800e5
:1016ec000002eb00040f7800010037001e0fe80029
:1016fc00f4c329009e027800848f5200fbff360051
:10170c00c1c3b3000040eb003a0007000002eb003d
:10171c00040f7800010037001e0fe800740220004f
:10172c009e027800848f5200fbff3600c1c0b300cc
:10173c000040eb002f0007000002eb00040f7800c4
:10174c00010037001e0fe8001e027800f30f520054
:10175c00fcff360061c0b3000040eb002500070021
:10176c000002eb00040f7800010037001e0fe800a8
:10177c001e027800f30f5200fcff360001c1b300cb
:10178c000040eb001b0007000002eb00040f780088
:10179c00010037001e0fe800740c20009e02780038
:1017ac00848f5200fbff36000c0007000080fa000b
:1017bc00000006000000fa000002eb002430880054
:1017cc00443080008442780004c8b30004c2620034
:1017dc00044078000080fa00000006000000fa00c7
:1017ec0011c0b3000040eb00020007000080fa00bb
:1017fc00000006000200fa00004f78001147980024
:10180c009e4278000582fb00243088001e42900026
:10181c000482fb00443088000080fa0000000600bf
:10182c000600fa0020479800210798000042eb00c0
:10183c0014479800030037001e4290000442e80051
:10184c00144798001e429000e74f4200faff360002
:10185c002e429000e04f520004003a0001c8b30041
:10186c000040eb00e3ff0700060037002e4290001b
:10187c00e14f520003003a0001ccb3000040eb00f2
:10188c00dcff07000042eb00044f78001200370029
:10189c000042eb0014479800030037001e429000f2
:1018ac000442e800144798001e429000fd4f52007d
:1018bc00faff36002e029000144278008440780023
:1018cc0010c0b300cbff07002e0290000402e8000a
:1018dc00240798001e4fe8001e427800ef4f52007c
:0c18ec00ebff36000080fa000000060050
:020000040000fa
:1018f8008a11000004000000000000000008000039
:101908008a090000000000008e110000020000009b
:0c191800020000000600000000000000bb
:020000040000fa
:020000040002f8
:04aff8005efb0000fc
:020000040000fa
:020000040002f8
:04affc007f3f000093
:00000001FF
