:020000040000fa
:080000000002040000000000f2
:020000040000fa
:100008009a0200009a0200009a0200009a02000078
:100018009a0200009a0200009a0200009a02000068
:100028009a0200009a0200009a0200009a02000058
:100038009a0200009a0200009a0200009a02000048
:100048009a0200009a0200004a0500009a02000085
:100058009a0200009a0200009a0200009a02000028
:100068009a0200009a0200009a0200009a02000018
:100078009a0200009a0200009a0200009a02000008
:100088009a0200009a0200009a0200009a020000f8
:100098009a0200009a0200009a0200009a020000e8
:1000a8009a0200009a0200009a0200009a020000d8
:1000b8009a0200009a0200009a0200009a020000c8
:1000c8009a0200009a0200009a0200009a020000b8
:1000d8009a0200009a0200009a0200009a020000a8
:1000e8009a0200009a0200009a0200009a02000098
:1000f8009a0200009a0200009a0200009a02000088
:100108009a0200009a0200009a0200009a02000077
:100118009a0200009a0200009a0200009a02000067
:100128009a0200009a0200009a0200009a02000057
:100138009a0200009a0200009a0200009a02000047
:100148009a0200009a0200009a0200009a02000037
:100158009a0200009a0200009a0200009a02000027
:100168009a0200009a0200009a0200009a02000017
:100178009a0200009a0200009a0200009a02000007
:100188009a0200009a0200009a0200009a020000f7
:100198009a0200009a0200009a0200009a020000e7
:1001a8009a0200009a0200009a0200009a020000d7
:1001b8009a0200009a0200009a0200009a020000c7
:1001c8009a0200009a0200009a0200009a020000b7
:1001d8009a0200009a0200009a0200009a020000a7
:1001e8009a0200009a0200009a0200009a02000097
:0801f8009a0200009a020000c7
:020000040000fa
:100208009a0200009a0200009a0200009a02000076
:100218009a0200009a0200009a0200009a02000066
:100228009a0200009a0200009a0200009a02000056
:100238009a0200009a0200009a0200009a02000046
:100248009a0200009a0200004a0500009a02000083
:100258009a0200009a0200009a0200009a02000026
:100268009a0200009a0200009a0200009a02000016
:100278009a0200009a0200009a0200009a02000006
:100288009a0200009a0200009a0200009a020000f6
:100298009a0200009a0200009a0200009a020000e6
:1002a8009a0200009a0200009a0200009a020000d6
:1002b8009a0200009a0200009a0200009a020000c6
:1002c8009a0200009a0200009a0200009a020000b6
:1002d8009a0200009a0200009a0200009a020000a6
:1002e8009a0200009a0200009a0200009a02000096
:1002f8009a0200009a0200009a0200009a02000086
:100308009a0200009a0200009a0200009a02000075
:100318009a0200009a0200009a0200009a02000065
:100328009a0200009a0200009a0200009a02000055
:100338009a0200009a0200009a0200009a02000045
:100348009a0200009a0200009a0200009a02000035
:100358009a0200009a0200009a0200009a02000025
:100368009a0200009a0200009a0200009a02000015
:100378009a0200009a0200009a0200009a02000005
:100388009a0200009a0200009a0200009a020000f5
:100398009a0200009a0200009a0200009a020000e5
:1003a8009a0200009a0200009a0200009a020000d5
:1003b8009a0200009a0200009a0200009a020000c5
:1003c8009a0200009a0200009a0200009a020000b5
:1003d8009a0200009a0200009a0200009a020000a5
:1003e8009a0200009a0200009a0200009a02000095
:0803f8009a0200009a020000c5
:020000040000fa
:100400004f8320000e7f22000e01880000000000b4
:10041000000020000000e000020032000001200087
:10042000200288000c00070080a5200001002000a9
:1004300011000700000020000000e0000200320070
:100440000000020000000000920302000000000013
:100450000040da000000fe004440a9000000200037
:100460000000e0000300320000002000a00188002e
:100470004440a80000000600910188008000780038
:100480000000eb0015003700e280400032a0b4000d
:100490009101ba00e280400032a0b4009102ba009b
:1004a000e280400032a0b4000002eb00472bde00e7
:1004b000f507b200602ce10004003a000059eb009f
:1004c0008301e900fdff3e00040037006128e100e0
:1004d000010032000082eb00040007001101ba00a5
:1004e0000200e000e8ff3a00000006003159ba00bf
:1004f0008301e9000c0032002159ba008301e900b0
:10050000080032000400e00003003a00e2804000ee
:1005100032a0b400f5ff370011d9ba008301e90019
:10052000faff3a008100e800e180400032a0b40008
:10053000000006000040da000000fe000000fa00a3
:10054000000000003410800061026200e00f5200e1
:10055000fcff3a003410800062026200e00f52009b
:10056000f8ff3a003410800064026200e00f52008d
:10057000f4ff3a003410800068026200e00f52007d
:10058000f0ff3a003410800070026200e00f520069
:10059000ecff3a0045108000040024000482620051
:1005a000e00f5200e7ff3a000080fa00000006006a
:1005b0000800fa00100798002107980032079800f9
:1005c0000002eb00040f7800270037000662a80045
:1005d000080037009e0278003e029000848f52008f
:1005e000020031001e0fe800020037001e029000da
:1005f000210037004400070000427800e04f52001d
:10060000f4ff32000002eb00040f780004108000b9
:10061000844278002e029000054a78002e02900055
:100620000402e800240798001e0290000402e9007a
:10063000140798001e029000e00f520003003a00d9
:1006400006a2a8000682a8000300370006a2a9009f
:100650000682a800000000003410800070026200d2
:10066000e00f5200fcff3a001e029000e00f520023
:10067000d6ff3a000002eb00040078000080fa0088
:10068000000006000200fa00004f78009e42780049
:100690000582fb001410880045108000040820002b
:1006a00004826200e00f52000200320000c2eb0040
:1006b000010037000042eb00044078000080fa009f
:1006c000000006000400fa00000f780011079800ef
:1006d0001e029000241088001e027800341088004a
:1006e0000080fa00000006000000fa000602a800e0
:1006f0000080fa00000006000000fa000642a80090
:100700000080fa00000006000000fa00441080009b
:100710000402d10061426200044078000080fa00c7
:0407200000000600cf
:020000040000fa
:100724001600fa000042eb00244798000042eb0058
:10073400344798000042eb00444798000042eb0025
:10074400544798000042eb00644798000042eb00d5
:10075400744798000042eb00045798000042eb00f5
:10076400145798000042eb00245798000042eb0015
:10077400345798000042eb00445798000042eb00c5
:10078400545798000042eb00044f98000042eb00dd
:10079400144f98000002eb00040f78000002eb00f5
:1007a400540798000002eb00640798000002eb0075
:1007b4007407980040a7a900c0c6a900c0c2a90038
:1007c400c002a900c062a900c042a900c022a900b9
:1007d400c0a2a900c0e2a800d2c2a800d2e2a80028
:1007e400d3a2a8004b0107007a02070031012000c0
:1007f4000080eb00b2ff0700cb0107000002eb0012
:10080400040f7800170037009e027800a40020002f
:10081400110009008482d8000102780004427800a3
:1008240006c3b30086424200c48120001e02420077
:10083400054a78009e027800a400200011000900f7
:100844008482d800010278000442780006c3b30011
:1008540086424200c48020001e024200054a7800fd
:100864001e0fe8001e027800ef0f5200e6ff36006c
:100874000002eb00040f7800060037001e02780027
:1008840084427800048020001e024200054a780059
:100894001e0fe8001e027800e50f5200f7ff360035
:1008a400c18020000040eb00cd020700c181200080
:1008b40010c0b300ca0207000002eb004412880013
:1008c400c402a900c422a900c4a2a900c4c2a900e8
:1008d400a51680000400220004826200e00f52008a
:1008e4000c003a00c402a800c18020000040eb00c4
:1008f400bb020700c181200010c0b300b80207008a
:100904000041eb00b1c6b30020cdb3005401070091
:100914005c00370015168000040820000482620081
:10092400e00f520026003a00c422a80070024700db
:10093400130020000401780031c4b30020cdb300bb
:100944005a010700710247001300200004017800d7
:1009540041c4b30020cdb300540107007202470024
:10096400130020000401780051c4b30020cdb3006b
:100974004e010700730247001300200004017800b1
:1009840061c4b30020cdb3004801070074024700de
:10099400130020000401780071c4b30020cdb3001b
:1009a400420107007502470013002000040178008b
:1009b40081c4b30020cdb3003c01070031003700ef
:1009c400a51680000408200004826200e00f520093
:1009d40020003a00c4a2a8001300200002802000d6
:1009e400b1c3b30020cdb3003001070013002000d1
:1009f40012802000c1c3b30020cdb3002b01070037
:100a04001300200022802000d1c3b30020cdb30006
:100a1400260107001300200032802000e1c3b30048
:100a240020cdb300210107001300200042802000e4
:100a3400f1c3b30020cdb3001c0107001300200054
:100a44005280200001c4b30020cdb3001701070079
:100a54000c003700a5168000040420000482620004
:100a6400e00f520007003a00c4c2a8007002470019
:100a7400130020000401780031c4b30020cdb3007a
:100a84000a010700442c20001420a2008cff370028
:100a94003600f800809fbe00829fbe00849fbe0087
:100aa400869fbe003400f80000002000a0018800ea
:100ab4000200fa000042eb00044f78000042eb0011
:100ac40014479800000000000412800061026200d4
:100ad400e00f5200fcff320044128000044f780003
:100ae40014c4b3009e42780084cf52004f003a00f1
:100af4001404200044128800000000000412800046
:100b040061026200e00f5200fcff320044128000d8
:100b14001447980064c5b300044f78000480200093
:100b2400144278000482fb00441288000000000094
:100b34000412800061026200e00f5200fcff3200e8
:100b44004412800004427800044378006580200049
:100b5400864a780014c0b300144798002500370073
:100b64001e4290008482fb00048020000482420024
:100b7400144278000482fb00441288000000000044
:100b84000412800061026200e00f5200fcff320098
:100b94001e4290000483fb004412800084427800cb
:100ba4006480200004024300054a78001e4290003d
:100bb4008482fb0064802000048242009442780016
:100bc4001e4290000482fb000403e900048020001c
:100bd400040243001442780084cf52000200320021
:100be40054c4b300044f78001e4290000442e8004d
:100bf400144798001e429000e54f5200d8ff36007b
:100c04009e4278000582fb00441288000000000028
:100c14000412800061026200e00f5200fcff320007
:100c240044128000144798002f0037009e42900021
:100c340004c5b30084cf520028003a000405200004
:100c44004412880000000000041280006102620067
:100c5400e00f5200fcff3200441280001447980059
:100c64001e4290000482fb00441288000000000031
:100c74000412800061026200e00f5200fcff3200a7
:100c840044128000644188001e4290000482fb00ec
:100c94004412880000000000041280006102620017
:100ca400e00f5200fcff32004412800074418800bf
:100cb4001e4378000682fb004412880000000000f6
:100cc4000412800061026200e00f5200fcff320057
:100cd4004412800014479800030037005404200095
:100ce400441288000b000700a40520004412880069
:100cf4008540a9000080fa003400f9004f03be00cb
:100d04004f02be004f01be004f00be003600f90086
:100d1400004006000000fa0041e2a90041a2a90037
:100d24000002eb00441288008540a9009540a80009
:100d3400440580000480a0000490a00004a0a10049
:100d4400440588004382a8004362a9004342a900e5
:100d54004322a90042c2a9004302a80042a2a9005a
:100d640042e2a900141280000420a1000430a10072
:100d74000440a00014128800141280000400a10092
:100d84000410a000141288000002eb002412880052
:100d9400c842a800c642a90041e2a8000080fa00a7
:100da400000006000200fa000002eb00040f7800c5
:100db4000002eb00040f78001000370004802000cc
:100dc4001e024200144278000482fb004412880090
:100dd400000000000412800061026200e00f520073
:100de400fcff3200441280008442780064802000ba
:100df4001e024200054a78001e0fe8001e02780019
:100e0400e50f5200edff36000080fa0000000600f6
:100e14000200fa00000f78001e02780044128800d5
:100e240007003700051280000404200004826200d9
:100e3400e00f5200020032000002eb0004128800ae
:100e44000412800061026200e00f5200f5ff3200dc
:100e540044128000040078000080fa0000000600bc
:100e64000400fa00004f78001147980022479800c8
:100e74001cfe0700b0fd07001e40780000fe0700be
:100e8400adfd07001e409000fdfd0700aafd070010
:100e94002e409000fafd0700a7fd070015fe07008d
:100ea400a5fd07000080fa00000006000600fa0015
:100eb400004f780011479800120798002307980004
:100ec40008fe07009cfd07001e407800ecfd0700ab
:100ed40099fd07001e409000e9fd070096fd0700fc
:100ee40004fe070094fd0700fefd070092fd0700c5
:100ef4001e4278000404a00004407800e0fd0700ce
:100f04008dfd07002e029000e20120009e0090005b
:100f140004007800a5fd0700f6fd070086fd070024
:100f24000080fa00000006000000fa0000c1eb0097
:100f340091c1b30020cdb300c9ff07000041eb000d
:100f4400a1c1b30020cdb300c5ff070082c0b30028
:100f5400b1c1b30020cdb300c1ff07000041eb00d5
:100f6400c1c1b30020cdb300bdff07000041eb00b9
:100f7400d1c1b30020cdb300b9ff07000041eb009d
:100f8400e1c1b30020cdb300b5ff07000041eb0081
:100f9400f1c1b30020cdb300b1ff07000041eb0065
:100fa40001c2b30020cdb300adff07000041eb0048
:100fb40011c2b30020cdb300a9ff07000041eb002c
:100fc40021c2b30020cdb300a5ff07000041eb0010
:100fd40031c2b30020cdb300a1ff07000041eb00f4
:100fe40041c2b30020cdb3009dff07000041eb00d8
:100ff40051c2b30020cdb30099ff07000041eb00bc
:1010040061c2b30020cdb30095ff07000041eb009f
:1010140071c2b30020cdb30091ff07000041eb0083
:1010240081c2b30020cdb3008dff07000041eb0067
:1010340091c2b30020cdb30089ff07000041eb004b
:10104400a1c2b30020cdb30085ff07000041eb002f
:10105400b1c2b30020cdb30081ff07000041eb0013
:10106400c1c2b30020cdb3007dff07000041eb00f7
:10107400d1c2b30020cdb30079ff07000041eb00db
:10108400e1c2b30020cdb30075ff07000041eb00bf
:10109400f1c2b30020cdb30071ff07000041eb00a3
:1010a40001c3b30020cdb3006dff07000041eb0086
:1010b40011c3b30020cdb30069ff07000041eb006a
:1010c40021c3b30020cdb30065ff07000041eb004e
:1010d40031c3b30020cdb30061ff07000041eb0032
:1010e40041c3b30020cdb3005dff07000041eb0016
:1010f40051c3b30020cdb30059ff07000041eb00fa
:1011040071c3b30020cdb30055ff07000041eb00cd
:1011140081c3b30020cdb30051ff07000041eb00b1
:1011240031c6b30020cdb3004dff07000041eb00f2
:1011340041c6b30020cdb30049ff07000041eb00d6
:1011440051c6b30020cdb30045ff07000041eb00ba
:1011540061c6b30020cdb30041ff07000041eb009e
:1011640071c6b30020cdb3003dff07000041eb0082
:1011740081c6b30020cdb30039ff07000041eb0066
:1011840091c6b30020cdb30035ff07000041eb004a
:10119400a1c6b30020cdb30031ff070022c0b300c5
:1011a400b1c6b30020cdb3002dff07000041eb0012
:1011b400c1c6b30020cdb30029ff07000041eb00f6
:1011c40041c7b30020cdb30025ff07000080fa001b
:1011d400000006000200fa0001e6a80001a6a9002a
:1011e4000430800004b0a10004c0a10004308800d1
:1011f4000146a9000126a8000106a80004308000c9
:101204000460a1000470a0000430880000a6a800b7
:101214000086a8000066a8000046a8000026a800d2
:101224000006a8001430800004d0a10004e0a1004e
:10123400143088001430800004b0a10004c0a10060
:10124400143088000346a900143080000480a000f4
:101254000490a00014308800143080000460a000c2
:101264000470a00014308800143080000420a00012
:101274000430a0000440a0000450a00014308800f2
:10128400143080000400a0000410a0001430880072
:101294000002eb0024308800140020006430880031
:1012a4000002eb00040f7800010037001e0fe80075
:1012b400f4c329009e027800848f5200fbff36009d
:1012c400c1c3b3000040eb003a0007000002eb008a
:1012d400040f7800010037001e0fe800740220009c
:1012e4009e027800848f5200fbff3600c1c0b30019
:1012f4000040eb002f0007000002eb00040f780011
:10130400010037001e0fe8001e027800f30f5200a0
:10131400fcff360061c0b3000040eb00250007006d
:101324000002eb00040f7800010037001e0fe800f4
:101334001e027800f30f5200fcff360001c1b30017
:101344000040eb001b0007000002eb00040f7800d4
:10135400010037001e0fe800740c20009e02780084
:10136400848f5200fbff36000c0007000080fa0057
:10137400000006000000fa000002eb0024308800a0
:10138400443080008442780004c8b30004c2620080
:10139400044078000080fa00000006000000fa0013
:1013a40011c0b3000040eb00020007000080fa0007
:1013b400000006000200fa00004f78001147980070
:1013c4009e4278000582fb00243088001e42900073
:1013d4000482fb00443088000080fa00000006000c
:1013e4000600fa0020479800210798000042eb000d
:1013f40014479800030037001e4290000442e8009e
:10140400144798001e429000e74f4200faff36004e
:101414002e429000e04f520004003a0001c8b3008d
:101424000040eb00e3ff0700060037002e42900067
:10143400e14f520003003a0001ccb3000040eb003e
:10144400dcff07000042eb00044f78001200370075
:101454000042eb0014479800030037001e4290003e
:101464000442e800144798001e429000fd4f5200c9
:10147400faff36002e02900014427800844078006f
:1014840010c0b300cbff07002e0290000402e80056
:10149400240798001e4fe8001e427800ef4f5200c8
:0c14a400ebff36000080fa00000006009c
:020000040000fa
:1014b00030080000040000000000000000080000e8
:0c14c000300000000000000000000000f0
:020000040000fa
:020000040002f8
:04aff8005efa0000fd
:020000040000fa
:020000040002f8
:04affc007f3f000093
:00000001FF
