:020000040000fa
:080000000002040000000000f2
:020000040000fa
:100008009a0200009a0200009a0200009a02000078
:100018009a0200009a0200009a0200009a02000068
:100028009a0200009a0200009a02000034040000bc
:100038009a0200009a0200009a0200009a02000048
:100048009a0200009a0200006a0400009a02000066
:100058009a0200009a0200009a0200009a02000028
:100068009a0200009a0200009a0200009a02000018
:100078009a0200009a0200009a0200009a02000008
:100088009a0200009a0200009a0200009a020000f8
:100098009a0200009a0200009a0200009a020000e8
:1000a8009a0200009a0200009a0200009a020000d8
:1000b8009a0200009a0200009a0200009a020000c8
:1000c8009a0200009a0200009a0200009a020000b8
:1000d8009a0200009a0200009a0200009a020000a8
:1000e8009a0200009a0200009a0200009a02000098
:1000f8009a0200009a0200009a0200009a02000088
:100108009a0200009a0200009a0200009a02000077
:100118009a0200009a0200009a0200009a02000067
:100128009a0200009a0200009a0200009a02000057
:100138009a0200009a0200009a0200009a02000047
:100148009a0200009a0200009a0200009a02000037
:100158009a0200009a0200009a0200009a02000027
:100168009a0200009a0200009a0200009a02000017
:100178009a0200009a0200009a0200009a02000007
:100188009a0200009a0200009a0200009a020000f7
:100198009a0200009a0200009a0200009a020000e7
:1001a8009a0200009a0200009a0200009a020000d7
:1001b8009a0200009a0200009a0200009a020000c7
:1001c8009a0200009a0200009a0200009a020000b7
:1001d8009a0200009a0200009a0200009a020000a7
:1001e8009a0200009a0200009a0200009a02000097
:0801f8009a0200009a020000c7
:020000040000fa
:100208009a0200009a0200009a0200009a02000076
:100218009a0200009a0200009a0200009a02000066
:100228009a0200009a0200009a02000034040000ba
:100238009a0200009a0200009a0200009a02000046
:100248009a0200009a0200006a0400009a02000064
:100258009a0200009a0200009a0200009a02000026
:100268009a0200009a0200009a0200009a02000016
:100278009a0200009a0200009a0200009a02000006
:100288009a0200009a0200009a0200009a020000f6
:100298009a0200009a0200009a0200009a020000e6
:1002a8009a0200009a0200009a0200009a020000d6
:1002b8009a0200009a0200009a0200009a020000c6
:1002c8009a0200009a0200009a0200009a020000b6
:1002d8009a0200009a0200009a0200009a020000a6
:1002e8009a0200009a0200009a0200009a02000096
:1002f8009a0200009a0200009a0200009a02000086
:100308009a0200009a0200009a0200009a02000075
:100318009a0200009a0200009a0200009a02000065
:100328009a0200009a0200009a0200009a02000055
:100338009a0200009a0200009a0200009a02000045
:100348009a0200009a0200009a0200009a02000035
:100358009a0200009a0200009a0200009a02000025
:100368009a0200009a0200009a0200009a02000015
:100378009a0200009a0200009a0200009a02000005
:100388009a0200009a0200009a0200009a020000f5
:100398009a0200009a0200009a0200009a020000e5
:1003a8009a0200009a0200009a0200009a020000d5
:1003b8009a0200009a0200009a0200009a020000c5
:1003c8009a0200009a0200009a0200009a020000b5
:1003d8009a0200009a0200009a0200009a020000a5
:1003e8009a0200009a0200009a0200009a02000095
:0803f8009a0200009a020000c5
:020000040000fa
:100400002f0121000e7f22000e0188000000000055
:10041000000020000000e000020032000001200087
:10042000200288000c000700008c20000100200042
:1004300011000700000020000000e0000200320070
:1004400000000200000000009a030200000000000b
:100450000040da000000fe004440a9000000200037
:100460000000e0000300320000002000a00188002e
:100470004440a80000000600910188008000780038
:100480000000eb0015003700e280400032a0b4000d
:100490009101ba00e280400032a0b4009102ba009b
:1004a000e280400032a0b4000002eb00472bde00e7
:1004b000f507b200602ce10004003a000059eb009f
:1004c0008301e900fdff3e00040037006128e100e0
:1004d000010032000082eb00040007001101ba00a5
:1004e0000200e000e8ff3a00000006003159ba00bf
:1004f0008301e9000c0032002159ba008301e900b0
:10050000080032000400e00003003a00e2804000ee
:1005100032a0b400f5ff370011d9ba008301e90019
:10052000faff3a008100e800e180400032a0b40008
:10053000000006000040da000000fe000000fa00a3
:10054000000000003410800061026200e00f5200e1
:10055000fcff3a003410800062026200e00f52009b
:10056000f8ff3a003410800064026200e00f52008d
:10057000f4ff3a003410800068026200e00f52007d
:10058000f0ff3a003410800070026200e00f520069
:10059000ecff3a0045108000040024000482620051
:1005a000e00f5200e7ff3a000080fa00000006006a
:1005b0000800fa00100798002107980032079800f9
:1005c0000002eb00040f7800270037000662a80045
:1005d000080037009e0278003e029000848f52008f
:1005e000020031001e0fe800020037001e029000da
:1005f000210037004800070000427800e04f520019
:10060000f4ff32000002eb00040f780004108000b9
:10061000844278002e029000054a78002e02900055
:100620000402e800240798001e0290000402e9007a
:10063000140798001e029000e00f520003003a00d9
:1006400006a2a8000682a8000300370006a2a9009f
:100650000682a800000000003410800070026200d2
:10066000e00f5200fcff3a001e029000e00f520023
:10067000d6ff3a000002eb00040078000080fa0088
:10068000000006000200fa00004f78009e42780049
:100690000582fb001410880045108000040820002b
:1006a00004826200e00f52000200320000c2eb0040
:1006b000010037000042eb00044078000080fa009f
:1006c000000006000400fa00000f780011079800ef
:1006d0001e029000241088001e027800341088004a
:1006e0000080fa00000006000000fa000622a800c0
:1006f0000080fa00000006000000fa000602a800d0
:100700000080fa00000006000000fa000642a8007f
:100710000080fa00000006000000fa00441080008b
:100720000402d10061426200044078000080fa00b7
:0407300000000600bf
:020000040000fa
:100734000400fa0040a7a900c0c6a900c0c2a900cd
:10074400c082a900c002a900f10020000000280016
:10075400dbff070066020700f40107001e02070022
:10076400e900070044808000e00f520003003200db
:10077400e50007000002eb004480880054808000fc
:10078400e00f520034003200230020000e017800f4
:1007940021c7b30020cdb300180107001e42780022
:1007a4000482fb00c822dd001e4290000482fb008c
:1007b4008502720004402000848f520011003a0028
:1007c4000042eb00244798000e82e800130020004a
:1007d40004017800a1c6b30020cdb30007010700cf
:1007e4002e4290000424a00004417800a1c6b30066
:1007f40020cdb300ee000700442c20001400a2001a
:10080400130037001e4278000482fb00c822dd007a
:100814001e4290000482fb008502720094022000b4
:10082400848f52000a003600158080000480200066
:1008340004824200a30220000401780041c7b300ef
:1008440020cdb300ed000700442c20001440a2008a
:100854000002eb0054808800442c20001460a200a5
:10086400c0ff3700849fbe00861f78003400f80064
:1008740004002000a40188000000fa00241680006f
:100884004422de006142620004c2ea006142620066
:100894000482fb00610262004422dd00261680000f
:1008a400f5fe2f00850263000502720024168800fd
:1008b40014002000348088008460a9000080fa00bd
:1008c4003400f9004f0378004f02be0000400600d8
:1008d400849fbe00861f78003400f80004002000c6
:1008e400a40188000400fa000042eb0024479800a9
:1008f4000042eb00344798000002eb00040f78003c
:10090400000000000412800061026200e00f520047
:10091400fcff32004412800034479800be4290002d
:1009240014c4b30084cf520048003a0014042000d9
:10093400441288000000000004128000610262007a
:10094400e00f5200fcff320044128000040f7800d4
:1009540064c5b300244798000002eb00040f78003c
:1009640014003700148080009e024200048020009e
:1009740004824200144278000482fb00441288007e
:10098400000000000412800061026200e00f5200c7
:10099400fcff3200148080001e03420044128000d9
:1009a4008442780004c0200004024300054a780011
:1009b4001e0fe800f40f20009e027800848f52007e
:1009c400e8ff3600148080000410b0001480880012
:1009d40015808000f43f2000848f52000900360007
:1009e4000002eb00148088006400200084808800ea
:1009f4000002eb000480880014002000448088007a
:100a04000500370014808000048088001480800072
:100a140066024200848088002e4290000482fb001b
:100a24004412880000000000041280006102620089
:100a3400e00f5200fcff320044128000040f7800e3
:100a4400140020005480880027003700be42900024
:100a540024c4b30084cf520020003a0024042000b0
:100a64004412880000000000041280006102620049
:100a7400e00f5200fcff320044128000244798002b
:100a840044002100144278000482fb0044128800d0
:100a9400000000000412800061026200e00f5200b6
:100aa400fcff3200441280002447980054002100c7
:100ab400144278000482fb00441288000000000005
:100ac4000412800061026200e00f5200fcff320059
:100ad4004412800024479800030037005404200087
:100ae4004412880040c2a900a405200044128800d2
:100af4008540a9000080fa003400f9004f03780013
:100b04004f02be00004006000200fa000042eb0063
:100b1400044f78002100370004cbb3001e4272005a
:100b2400044078004b0107000040eb004901070036
:100b340000c1b300470107000042eb0014479800ce
:100b44001200370000ceb300420107009e42780035
:100b54000582fb00c722dd001e4290000482fb00d8
:100b640084824200044020008482420004802000e9
:100b74000482420014427800044078003e010700d9
:100b84001e4290000442e800144798001e42900060
:100b9400e04f5200ebff3d001e4fe8001e4278007c
:100ba400e74f5200dcff36000080fa000000060028
:100bb4000400fa00004f780011479800224798007b
:100bc400ccfe07005cfe07001e407800acfe070068
:100bd40059fe07001e409000a9fe070056fe0700bc
:100be4002e409000a6fe070053fe0700c5fe070036
:100bf40051fe07000080fa00000006000600fa001b
:100c0400004f7800114798001207980023079800b6
:100c1400b8fe070048fe07001e40780098fe070053
:100c240045fe07001e40900095fe070042fe0700a7
:100c3400acfe070040fe07001e4278000404a0003a
:100c4400044078008efe07003bfe07002e02900051
:100c5400e20120009e0090000400780053fe07008b
:100c6400a8fe070034fe07000080fa00000006001a
:100c74000000fa0000c1eb0091c1b30020cdb30025
:100c8400cbff07000041eb00a1c1b30020cdb300ae
:100c9400c7ff070082c0b300b1c1b30020cdb300c9
:100ca400c3ff07000041eb00c1c1b30020cdb30076
:100cb400bfff07000041eb00d1c1b30020cdb3005a
:100cc400bbff07000041eb00e1c1b30020cdb3003e
:100cd400b7ff07000041eb00f1c1b30020cdb30022
:100ce400b3ff07000041eb0001c2b30020cdb30005
:100cf400afff07000041eb0011c2b30020cdb300e9
:100d0400abff07000041eb0021c2b30020cdb300cc
:100d1400a7ff07000041eb0031c2b30020cdb300b0
:100d2400a3ff07000041eb0041c2b30020cdb30094
:100d34009fff07000041eb0051c2b30020cdb30078
:100d44009bff07000041eb0061c2b30020cdb3005c
:100d540097ff07000041eb0071c2b30020cdb30040
:100d640093ff07000041eb0081c2b30020cdb30024
:100d74008fff07000041eb0091c2b30020cdb30008
:100d84008bff07000041eb00a1c2b30020cdb300ec
:100d940087ff07000041eb00b1c2b30020cdb300d0
:100da40083ff07000041eb00c1c2b30020cdb300b4
:100db4007fff07000041eb00d1c2b30020cdb30098
:100dc4007bff07000041eb00e1c2b30020cdb3007c
:100dd40077ff07000041eb00f1c2b30020cdb30060
:100de40073ff07000041eb0001c3b30020cdb30043
:100df4006fff07000041eb0011c3b30020cdb30027
:100e04006bff07000041eb0021c3b30020cdb3000a
:100e140067ff07000041eb0031c3b30020cdb300ee
:100e240063ff07000041eb0041c3b30020cdb300d2
:100e34005fff07000041eb0051c3b30020cdb300b6
:100e44005bff07000041eb0071c3b30020cdb3008a
:100e540057ff07000041eb0081c3b30020cdb3006e
:100e640053ff07000041eb0031c6b30020cdb300af
:100e74004fff07000041eb0041c6b30020cdb30093
:100e84004bff07000041eb0051c6b30020cdb30077
:100e940047ff07000041eb0061c6b30020cdb3005b
:100ea40043ff07000041eb0071c6b30020cdb3003f
:100eb4003fff07000041eb0081c6b30020cdb30023
:100ec4003bff07000041eb0091c6b30020cdb30007
:100ed40037ff07000041eb00a1c6b30020cdb300eb
:100ee40033ff070022c0b300b1c6b30020cdb30066
:100ef4002fff07000041eb00c1c6b30020cdb300b3
:100f04002bff07000041eb0041c7b30020cdb30025
:100f140027ff07000041eb00b1c6b30020cdb300aa
:100f240023ff07000080fa00000006000000fa001a
:100f340061e2a90061a2a9000002eb004413880049
:100f44008820a9009820a9006382a9006362a900ef
:100f54006342a9006322a90062c2a9006302a80037
:100f640062a2a800141380000420a0000430a00092
:100f74000440a00014138800141380000400a0008f
:100f84000410a000141388000002eb00241388004e
:100f9400c842a800c642a90061e2a8000080fa0085
:100fa400000006000200fa00000f78001e0278001c
:100fb40044138800000000000413800061026200f2
:100fc400e00f5200fcff320044138000040078005c
:100fd4000080fa00000006000000fa0020cab300f6
:100fe4001c00070000cab3001a00070000ccb300bd
:100ff4001800070000c4b30016000700c0c2b30005
:1010040014000700e0c2b30012000700f0c2b300ee
:101014001000070060c2b3000e00070050c2b30006
:101024000c00070010c8b3000a00070090c1b30009
:1010340008000700f0c2b30006000700f0cab300be
:101044000400070040cab300020007000080fa0051
:10105400000006000200fa00004f7800c202a90056
:101064009e4278000582fb0004007800cdff070053
:101074000080fa00000006000200fa00004f780029
:10108400c202a8009e4278000582fb00040078009a
:10109400c4ff07000080fa00000006000000fa0008
:1010a4000002eb00040888000002eb00240888001a
:1010b400843e2000140888002405800004c0a10098
:1010c40004d0a00004e0a100240588008460a900e5
:1010d400240880000440a0000450a10024088800d3
:1010e4009460a80005e1a8000080fa000000060052
:1010f4000000fa0041e2a90041a2a9000002eb00ad
:10110400441288008540a9009540a8004405800049
:101114000480a0000490a00004a0a100440588005d
:101124004382a9004362a9004342a9004322a900c3
:1011340042c2a9004302a90042a2a90014128000dd
:101144000420a1000430a1000440a000141288006f
:10115400141280000400a1000410a00014128800de
:101164000002eb0024128800c842a800c642a9006d
:0c11740041e2a8000080fa000000060024
:020000040000fa
:10118000000800001008000000000000101000001f
:101190000200000002000000060000000000000045
:020000040000fa
:020000040002f8
:04aff800befb00009c
:020000040000fa
:020000040002f8
:04affc007f3f000093
:00000001FF
