:020000040000fa
:080000000002040000000000f2
:020000040000fa
:10000800ca0200009a020000a0020000a602000036
:10001800ac020000ca020000ca020000ca020000c6
:10002800ca020000ca020000ca020000ca02000098
:10003800ca020000ca020000ca020000ca02000088
:10004800ca020000ca020000ca020000ca02000078
:10005800ca020000ca020000ca020000ca02000068
:10006800ca020000ca020000ca020000ca02000058
:10007800ca020000ca020000ca020000ca02000048
:10008800ca020000ca020000ca020000ca02000038
:10009800ca020000ca020000ca020000ca02000028
:1000a800ca020000ca020000ca020000ca02000018
:1000b800ca020000ca020000ca020000ca02000008
:1000c800ca020000ca020000ca020000ca020000f8
:1000d800ca020000ca020000ca020000ca020000e8
:1000e800ca020000ca020000ca020000ca020000d8
:1000f800ca020000ca020000ca020000ca020000c8
:10010800ca020000ca020000ca020000ca020000b7
:10011800ca020000ca020000ca020000ca020000a7
:10012800ca020000ca020000ca020000ca02000097
:10013800ca020000ca020000ca020000ca02000087
:10014800ca020000ca020000ca020000ca02000077
:10015800ca020000ca020000ca020000ca02000067
:10016800ca020000ca020000ca020000ca02000057
:10017800ca020000ca020000ca020000ca02000047
:10018800ca020000ca020000ca020000ca02000037
:10019800ca020000ca020000ca020000ca02000027
:1001a800ca020000ca020000ca020000ca02000017
:1001b800ca020000ca020000ca020000ca02000007
:1001c800ca020000ca020000ca020000ca020000f7
:1001d800ca020000ca020000ca020000ca020000e7
:1001e800ca020000ca020000ca020000ca020000d7
:0801f800ca020000ca02000067
:020000040000fa
:10020800ca020000b2020000b8020000be020000ec
:10021800c4020000ca020000ca020000ca020000ac
:10022800ca020000ca020000ca020000ca02000096
:10023800ca020000ca020000ca020000ca02000086
:10024800ca020000ca020000ca020000ca02000076
:10025800ca020000ca020000ca020000ca02000066
:10026800ca020000ca020000ca020000ca02000056
:10027800ca020000ca020000ca020000ca02000046
:10028800ca020000ca020000ca020000ca02000036
:10029800ca020000ca020000ca020000ca02000026
:1002a800ca020000ca020000ca020000ca02000016
:1002b800ca020000ca020000ca020000ca02000006
:1002c800ca020000ca020000ca020000ca020000f6
:1002d800ca020000ca020000ca020000ca020000e6
:1002e800ca020000ca020000ca020000ca020000d6
:1002f800ca020000ca020000ca020000ca020000c6
:10030800ca020000ca020000ca020000ca020000b5
:10031800ca020000ca020000ca020000ca020000a5
:10032800ca020000ca020000ca020000ca02000095
:10033800ca020000ca020000ca020000ca02000085
:10034800ca020000ca020000ca020000ca02000075
:10035800ca020000ca020000ca020000ca02000065
:10036800ca020000ca020000ca020000ca02000055
:10037800ca020000ca020000ca020000ca02000045
:10038800ca020000ca020000ca020000ca02000035
:10039800ca020000ca020000ca020000ca02000025
:1003a800ca020000ca020000ca020000ca02000015
:1003b800ca020000ca020000ca020000ca02000005
:1003c800ca020000ca020000ca020000ca020000f5
:1003d800ca020000ca020000ca020000ca020000e5
:1003e800ca020000ca020000ca020000ca020000d5
:0803f800ca020000ca02000065
:020000040000fa
:100400000f8520000e7f22000e01880000000000f2
:10041000000020000000e000020032000001200087
:10042000200288000c000700606e20000100200000
:1004300011000700000020000000e0000200320070
:100440000000020000000000280702000000000079
:100450000040da000000fe004440a90020242000f3
:100460000000e0000300320000002000a00188002e
:100470004440a80000000600910188008000780038
:100480000000eb0015003700e280400032a0b4000d
:100490009101ba00e280400032a0b4009102ba009b
:1004a000e280400032a0b4000002eb00472bde00e7
:1004b000f507b200602ce10004003a000059eb009f
:1004c0008301e900fdff3e00040037006128e100e0
:1004d000010032000082eb00040007001101ba00a5
:1004e0000200e000e8ff3a00000006003159ba00bf
:1004f0008301e9000c0032002159ba008301e900b0
:10050000080032000400e00003003a00e2804000ee
:1005100032a0b400f5ff370011d9ba008301e90019
:10052000faff3a008100e800e180400032a0b40008
:10053000000006000000fa008020a900ffff37003d
:100540000000fa008060a900ffff37000000fa00f9
:100550008040a900ffff37000000fa008080a9005a
:10056000ffff37000000fa008020a900ffff3700de
:100570000000fa008060a900ffff37000000fa00c9
:100580008040a900ffff37000000fa008080a9002a
:0c059000ffff37000040da000000fe0012
:020000040000fa
:10059c00412000002020000020200000202000002e
:1005ac00202000002020000020200000202000003f
:1005bc00004200002020000020200000202000002d
:1005cc00202000002020000020200000202000001f
:1005dc00200000004320000020200000202000000c
:1005ec0020200000202000002020000020200000ff
:1005fc0020200000004400002020000020200000eb
:10060c0020200000202000002020000020200000de
:10061c0020200000200000004520000020200000c9
:10062c0020200000202000002020000020200000be
:10063c0020200000202000000046000020200000a8
:10064c00202000002020000020200000202000009e
:10065c002020000020200000200000004720000087
:10066c00202000002020000020200000202000007e
:10067c002020000020200000202000000048000066
:10068c00202000002020000020200000202000005e
:10069c00202000002020000020200000200000006e
:1006ac004920000020200000202000002020000015
:1006bc00202000002020000020200000202000002e
:1006cc00004a000020200000202000002020000014
:1006dc00202000002020000020200000202000000e
:1006ec002000000046650000617400007572000077
:1006fc00657300003a20000020200000202000003c
:10070c00202000000032000020530000504900005f
:10071c00206d00006f640000756c000065730000b4
:10072c002020000020000000322000004932000090
:10073c00432000006d6f0000647500006c650000c4
:10074c007320000020200000003200002055000023
:10075c004152000054730000207700002f2000004d
:10076c004972000044410000200000004e6500006a
:10077c007720000050610000726100006c6c00007a
:10078c00656c00002020000020200000004d0000bf
:10079c00617300007465000072200000506f00004f
:1007ac0072740000202000002020000020000000b7
:1007bc0035300000306b000020730000616d0000cc
:1007cc00706c00006520000020200000202000003c
:1007dc0000310000302d0000626900007420000020
:1007ec00412f0000442000002020000020200000a9
:1007fc002000000035200000505700004d20000064
:10080c006f7200002020000020200000202000003b
:10081c0020200000004f000075740000707500006f
:10082c0074200000636f00006d70000061720000a6
:10083c00652000002000000035200000496e0000fb
:10084c00707500007420000043610000707400009b
:10085c007572000065200000005200006561000008
:10086c006c2d0000746900006d65000020630000b1
:10087c006c6f0000636b000020000000616e0000d4
:10088c0064200000636100006c6500006e64000071
:10089c0061720000202000002020000000570000a2
:1008ac006174000063680000646f00006720000042
:1008bc00546900006d6500007220000020000000eb
:1008cc004f6e00002d63000068690000702000006e
:1008dc00766f00006c7400006167000065200000fa
:1008ec000072000065670000756c00006174000008
:1008fc006f7200002020000020200000202000004b
:10090c002000000035200000313600002d62000070
:10091c006974000020740000696d000065720000ad
:10092c007320000000330000322d000062690000cb
:10093c00742000006f700000746900006f6e00007e
:10094c0073200000200000004d6100006e79000053
:10095c00206f000073630000696c00006c61000084
:10096c00746f000072200000006d00006f640000c6
:10097c0065730000202000002020000020200000d3
:10098c00202000002020000020000000384d000036
:10099c00487a0000206900006e7400006572000047
:1009ac006e6100006c20000020200000006f000031
:1009bc0073630000696c00006c610000746f0000d0
:1009cc0072200000202000002020000020000000e9
:1009dc002020000045780000706c00006f72000051
:1009ec00657200002031000036200000202000003d
:1009fc000044000065760000656c00006f7000001c
:100a0c006d6500006e7400002042000072640000ee
:040a1c0020000000b6
:020000040000fa
:100a20000200fa0001e6a80001a6a9000430800037
:100a300004b0a10004c0a100043088000146a90050
:100a40000126a8000106a800043080000460a1006f
:100a50000470a0000430880000a6a8000086a8004a
:100a60000066a8000046a8000026a8000006a8000e
:100a70001430800004d0a10004e0a10014308800ec
:100a80001430800004b0a10004c0a100143088001c
:100a90000346a900143080000480a0000490a00048
:100aa00014308800143080000460a0000470a0009e
:100ab00014308800143080000420a0000430a0000e
:100ac0000440a0000450a0001430880014308000be
:100ad0000400a0000410a000143088000002eb0005
:100ae0002430880014002000643088000002eb00ed
:100af000040f7800010037001e0fe800f4c329003e
:100b00009e027800848f5200fbff3600c1c3b30001
:100b10000040eb006f0007000002eb00040f7800bc
:100b2000010037001e0fe800740220009e027800ca
:100b3000848f5200fbff3600c1c0b3000040eb00c1
:100b4000640007000002eb00040f7800010037008a
:100b50001e0fe8001e027800f30f5200fcff360063
:100b600061c0b3000040eb005a0007000002eb0038
:100b7000040f7800010037001e0fe8001e02780005
:100b8000f30f5200fcff360001c1b3000040eb0040
:100b9000500007000002eb00040f7800010037004e
:100ba0001e0fe800740c20009e027800848f520013
:100bb000fbff36004100070004c2b3000443780085
:100bc00085842000864a78000080fa000000060034
:100bd0000000fa0084842000144278000482fb00a4
:100be0008402420004802000048242001402780043
:100bf0005442880054428000840078000040eb009a
:100c00003f000700442c20001460a20084842000d0
:100c1000144278000442e8000443780085842000f0
:100c2000864a780084842000144278000482fb0005
:100c300084024200048020000482420014027800f2
:100c400054428800544280008400780010c0b300f1
:100c50002b00070084842000144278000442e8003e
:100c60000443780085842000864a7800848420002c
:100c700014427800ff4f5200040036000042eb009f
:100c80000443780085842000864a78000080fa00ba
:100c9000000006000000fa000002eb00243088008b
:100ca000443080008442780004c8b30004c262006b
:100cb000044078000080fa00000006000000fa00fe
:100cc00011c0b3000040eb00020007000080fa00f2
:100cd000000006000200fa00004f7800114798005b
:100ce0009e4278000582fb00243088001e4290005e
:100cf0000482fb00443088000080fa0000000600f7
:100d00000600fa0020479800210798000042eb00f7
:100d100014479800030037001e4290000442e80088
:100d2000144798001e429000e74f4200faff360039
:100d30002e429000e04f520004003a0001c8b30078
:100d40000040eb00e3ff0700060037002e42900052
:100d5000e14f520003003a0001ccb3000040eb0029
:100d6000dcff07000042eb00044f78001200370060
:100d70000042eb0014479800030037001e42900029
:100d80000442e800144798001e429000fd4f5200b4
:100d9000faff36002e02900014427800844078005a
:100da00010c0b300cbff07002e0290000402e80041
:100db000240798001e4fe8001e427800ef4f5200b3
:0c0dc000ebff36000080fa000000060087
:020000040000fa
:100dcc0044080000080000000000000000080000bb
:100ddc004400000002000000ce82df0082f082009e
:100dec0001831200832383003483450083568300e0
:100dfc0067837800838983009a83ab0083bc83006c
:100e0c00cd83de0083ef83000084110084228400f4
:100e1c00338444008455840066847700848884007d
:100e2c009984aa0084bb8400cc84dd0084ee840009
:100e3c00ff8400004c0800000400000000000000cb
:040e4c0000000000a2
:020000040000fa
:100e50000000fa0040a7a900c0c6a900c0c2a900ae
:100e6000effe07005aff0700442c20001460a20088
:100e70006022b8006442880075428800060037008e
:100e8000644280007542800061024200e0824a00b4
:100e90006442880075428800664280007742800084
:100ea000f43d290045002000840f5300858f5b002e
:080eb000f3ff3600ebff3700f1
:020000040000fa
:020000040002f8
:04aff8005dfa0000fe
:020000040000fa
:020000040002f8
:04affc007f3f000093
:00000001FF
