:020000040000fa
:080000000002040000000000f2
:020000040000fa
:100008009a0200009a0200009a0200009a02000078
:100018009a0200009a0200009a0200009a02000068
:100028009a0200009a0200009a0200009a02000058
:100038009a0200009a0200009a0200009a02000048
:020000040000fa
:020000040000fa
:100400000f8020000e7f22000e01880000000000f7
:10041000000020000000e000020032000001200087
:10042000200288000c000700604620000100200028
:1004300011000700000020000000e0000200320070
:100440000000020000000000d003020000000000d5
:100450000040da000000fe004440a90080002000b7
:100460000000e0000300320000002000a00188002e
:100470004440a80000000600910188008000780038
:100480000000eb0015003700e280400032a0b4000d
:100490009101ba00e280400032a0b4009102ba009b
:1004a000e280400032a0b4000002eb00472bde00e7
:1004b000f507b200602ce10004003a000059eb009f
:1004c0008301e900fdff3e00040037006128e100e0
:1004d000010032000082eb00040007001101ba00a5
:1004e0000200e000e8ff3a00000006003159ba00bf
:1004f0008301e9000c0032002159ba008301e900b0
:10050000080032000400e00003003a00e2804000ee
:1005100032a0b400f5ff370011d9ba008301e90019
:10052000faff3a008100e800e180400032a0b40008
:10053000000006000040da000000fe000000fa00a3
:10054000000000003410800061026200e00f5200e1
:10055000fcff3a003410800062026200e00f52009b
:10056000f8ff3a003410800064026200e00f52008d
:10057000f4ff3a003410800068026200e00f52007d
:10058000f0ff3a003410800070026200e00f520069
:10059000ecff3a0045108000040024000482620051
:1005a000e00f5200e7ff3a000080fa00000006006a
:1005b0000800fa00100798002107980032079800f9
:1005c0000002eb00040f7800270037000662a80045
:1005d000080037009e0278003e029000848f52008f
:1005e000020031001e0fe800020037001e029000da
:1005f000210037005f00070000427800e04f520002
:10060000f4ff32000002eb00040f780004108000b9
:10061000844278002e029000054a78002e02900055
:100620000402e800240798001e0290000402e9007a
:10063000140798001e029000e00f520003003a00d9
:1006400006a2a8000682a8000300370006a2a9009f
:100650000682a800000000003410800070026200d2
:10066000e00f5200fcff3a001e029000e00f520023
:10067000d6ff3a000002eb00040078000080fa0088
:10068000000006000200fa00000f7800100037009a
:100690001e0278001442780004407800140007001d
:1006a00000427800e14f420002003a00d4cfb3008c
:1006b0000c0037000000000044108000610262005e
:1006c000e00f5200fcff3a009cff07001e0fe800fd
:1006d0001e02780014427800e04f5200ecff3a000e
:1006e0000042eb00044078000080fa0000000600a1
:1006f0000200fa00004f78009e4278000582fb005d
:100700001410880045108000040820000482620054
:10071000e00f52000200320000c2eb00010037007f
:100720000042eb00044078000080fa000000060060
:100730000400fa00000f7800110798001e029000d4
:10074000241088001e027800341088000080fa000f
:10075000000006000000fa000602a8000080fa006f
:10076000000006000000fa000642a8000080fa001f
:10077000000006000000fa00441080000402d100ce
:1007800061426200044078000080fa000000060028
:020000040000fa
:1007900050490000433200003446000000000000d1
:020000040000fa
:1007a0001800fa0068024700853c2800060009008e
:1007b000355a780040a7a900c0c6a900c0c2a90048
:1007c00068024700140798006f024700240798004a
:1007d0003101200000002800d5ff070014c7b30036
:1007e00064479800dbff070054ff07006e4290004b
:1007f0000442420004407800bdff07004fff07009d
:10080000451080000400280004826200e00f5200be
:1008100003003200d3ff070048ff0700f1ff370055
:100820001e00900097ff0700004278007447980070
:100830007e429000e34f420001003a00ffff370084
:10084000c8ff07003dff0700c2ff07003bff07008e
:100850006e4290000482fb000402420004427800d1
:100860000404a00004407800a1ff070033ff070044
:1008700042012000ae009000900020004cff0700d5
:1008800000027800744798007e429000e04f5200ca
:1008900001003200ffff3700b2ff070027ff07000b
:1008a000442c20001460a2000002eb00040f78002a
:1008b000010037001e0fe800f4342c009e0278007f
:0c08c000848f5200fbff3600c6ff37009b
:020000040000fa
:0408cc000000000028
:020000040000fa
:020000040002f8
:04aff800befb00009c
:020000040000fa
:020000040002f8
:04affc007f3f000093
:00000001FF
