:020000040000fa
:080000000002040000000000f2
:020000040000fa
:10000800ca0200009a020000a0020000a602000036
:10001800ac020000ca020000ca020000ca020000c6
:10002800ca020000ca020000ca020000ae050000b1
:10003800ca020000ca020000ca020000ca02000088
:10004800ca020000ca020000e4050000ca0200005b
:10005800ca020000ca020000ca020000ca02000068
:10006800ca020000ca020000ca020000ca02000058
:10007800ca020000ca020000ca020000ca02000048
:10008800ca020000ca020000ca020000ca02000038
:10009800ca020000ca020000ca020000ca02000028
:1000a800ca020000ca020000ca020000ca02000018
:1000b800ca020000ca020000ca020000ca02000008
:1000c800ca020000ca020000ca020000ca020000f8
:1000d800ca020000ca020000ca020000ca020000e8
:1000e800ca020000ca020000ca020000ca020000d8
:1000f800ca020000ca020000ca020000ca020000c8
:10010800ca020000ca020000ca020000ca020000b7
:10011800ca020000ca020000ca020000ca020000a7
:10012800ca020000ca020000ca020000ca02000097
:10013800ca020000ca020000ca020000ca02000087
:10014800ca020000ca020000ca020000ca02000077
:10015800ca020000ca020000ca020000ca02000067
:10016800ca020000ca020000ca020000ca02000057
:10017800ca020000ca020000ca020000ca02000047
:10018800ca020000ca020000ca020000ca02000037
:10019800ca020000ca020000ca020000ca02000027
:1001a800ca020000ca020000ca020000ca02000017
:1001b800ca020000ca020000ca020000ca02000007
:1001c800ca020000ca020000ca020000ca020000f7
:1001d800ca020000ca020000ca020000ca020000e7
:1001e800ca020000ca020000ca020000ca020000d7
:0801f800ca020000ca02000067
:020000040000fa
:10020800ca020000b2020000b8020000be020000ec
:10021800c4020000ca020000ca020000ca020000ac
:10022800ca020000ca020000ca020000ae050000af
:10023800ca020000ca020000ca020000ca02000086
:10024800ca020000ca020000e4050000ca02000059
:10025800ca020000ca020000ca020000ca02000066
:10026800ca020000ca020000ca020000ca02000056
:10027800ca020000ca020000ca020000ca02000046
:10028800ca020000ca020000ca020000ca02000036
:10029800ca020000ca020000ca020000ca02000026
:1002a800ca020000ca020000ca020000ca02000016
:1002b800ca020000ca020000ca020000ca02000006
:1002c800ca020000ca020000ca020000ca020000f6
:1002d800ca020000ca020000ca020000ca020000e6
:1002e800ca020000ca020000ca020000ca020000d6
:1002f800ca020000ca020000ca020000ca020000c6
:10030800ca020000ca020000ca020000ca020000b5
:10031800ca020000ca020000ca020000ca020000a5
:10032800ca020000ca020000ca020000ca02000095
:10033800ca020000ca020000ca020000ca02000085
:10034800ca020000ca020000ca020000ca02000075
:10035800ca020000ca020000ca020000ca02000065
:10036800ca020000ca020000ca020000ca02000055
:10037800ca020000ca020000ca020000ca02000045
:10038800ca020000ca020000ca020000ca02000035
:10039800ca020000ca020000ca020000ca02000025
:1003a800ca020000ca020000ca020000ca02000015
:1003b800ca020000ca020000ca020000ca02000005
:1003c800ca020000ca020000ca020000ca020000f5
:1003d800ca020000ca020000ca020000ca020000e5
:1003e800ca020000ca020000ca020000ca020000d5
:0803f800ca020000ca02000065
:020000040000fa
:10040000ef1621000e7f22000e0188000000000080
:10041000000020000000e000020032000001200087
:10042000200288000c00070040ad200001002000e1
:1004300011000700000020000000e0000200320070
:100440000000020000000000b604020000000000ee
:100450000040da000000fe004440a9000000200037
:100460000000e0000300320000002000a00188002e
:100470004440a80000000600910188008000780038
:100480000000eb0015003700e280400032a0b4000d
:100490009101ba00e280400032a0b4009102ba009b
:1004a000e280400032a0b4000002eb00472bde00e7
:1004b000f507b200602ce10004003a000059eb009f
:1004c0008301e900fdff3e00040037006128e100e0
:1004d000010032000082eb00040007001101ba00a5
:1004e0000200e000e8ff3a00000006003159ba00bf
:1004f0008301e9000c0032002159ba008301e900b0
:10050000080032000400e00003003a00e2804000ee
:1005100032a0b400f5ff370011d9ba008301e90019
:10052000faff3a008100e800e180400032a0b40008
:10053000000006000000fa008020a900ffff37003d
:100540000000fa008060a900ffff37000000fa00f9
:100550008040a900ffff37000000fa008080a9005a
:10056000ffff37000000fa008020a900ffff3700de
:100570000000fa008060a900ffff37000000fa00c9
:100580008040a900ffff37000000fa008080a9002a
:10059000ffff37000040da000000fe000000fa0014
:1005a000000000003410800061026200e00f520081
:1005b000fcff3a003410800062026200e00f52003b
:1005c000f8ff3a003410800064026200e00f52002d
:1005d000f4ff3a003410800068026200e00f52001d
:1005e000f0ff3a003410800070026200e00f520009
:1005f000ecff3a00451080000400240004826200f1
:10060000e00f5200e7ff3a000080fa000000060009
:100610000000fa0000000000b410800061026200d7
:10062000e00f5200fcff3a00b4108000620262004a
:10063000e00f5200f8ff3a00b4108000640262003c
:10064000e00f5200f4ff3a00b4108000680262002c
:10065000e00f5200f0ff3a00b41080007002620018
:10066000e00f5200ecff3a00c510800004002400a7
:1006700004826200e00f5200e7ff3a000080fa00b7
:10068000000006000800fa001007980021079800f3
:10069000320798000002eb00040f780027003700b3
:1006a0000662a800080037009e0278003e02900013
:1006b000848f5200020031001e0fe8000200370054
:1006c0001e029000210037009a00070000427800c7
:1006d000e04f5200f4ff32000002eb00040f7800fc
:1006e00004108000844278002e029000054a7800b1
:1006f0002e0290000402e800240798001e029000d9
:100700000402e900140798001e029000e00f520056
:1007100003003a0006a2a8000682a80003003700e2
:1007200006a2a9000682a800000000003410800084
:1007300070026200e00f5200fcff3a001e029000bf
:10074000e00f5200d6ff3a000002eb0004007800f0
:100750000080fa00000006000800fa001007980068
:1007600021079800320798000002eb00040f780080
:10077000270037001662a800080037009e027800a4
:100780003e029000848f5200020031001e0fe800ec
:10079000020037001e029000210037006c000700a5
:1007a00000427800e04f5200f4ff32000002eb00fc
:1007b000040f780084108000844278002e0290009c
:1007c000054a78002e0290000402e80024079800f1
:1007d0001e0290000402e900140798001e02900017
:1007e000e00f520003003a0016a2a8001682a800eb
:1007f0000300370016a2a9001682a800000000001e
:10080000b410800070026200e00f5200fcff3a005a
:100810001e029000e00f5200d6ff3a000002eb00eb
:10082000040078000080fa00000006000200fa00d0
:10083000004f78009e4278000582fb00141088006b
:10084000451080000408200004826200e00f52007e
:100850000200320000c2eb00010037000042eb0052
:10086000044078000080fa00000006000200fa0050
:10087000004f78009e4278000582fb0094108800ab
:10088000c51080000408200004826200e00f5200be
:100890000200320000c2eb00010037000042eb0012
:1008a000044078000080fa00000006000400fa000e
:1008b000000f7800110798001e0290002410880095
:1008c0001e027800341088000080fa000000060044
:1008d0000400fa00000f7800110798001e02900033
:1008e000a41088001e027800b41088000080fa006e
:1008f000000006000000fa000602a8000080fa00ce
:10090000000006000000fa001602a8000080fa00ad
:10091000000006000000fa000642a8000080fa006d
:10092000000006000000fa001642a8000080fa004d
:10093000000006000000fa00441080000402d1000c
:1009400061426200044078000080fa000000060066
:100950000000fa00c41080000402d100614262006d
:0c096000044078000080fa00000006004f
:020000040000fa
:10096c000400fa000002eb00040f780040a7a90075
:10097c00130107002a02070054020700310120006e
:10098c0000002800c6ff07003101200000002800ed
:10099c00ccff0700730107000002eb00348b8800ca
:1009ac0056000700140020001407980001003700bf
:1009bc000000000004e224009e027800848f5200a4
:1009cc000c003a000002eb00040f780053162100d3
:1009dc0042162100c1c0b300c0c6b300cb02070051
:1009ec00531621004216210041c0b300c0c6b3000b
:1009fc00c6020700348b8000e10f5200ecff3a0076
:100a0c001e0fe8001e029000e00f5200250032007d
:100a1c00058b8000048020000482420063002000cb
:100a2c0004017800b1c3b30020cdb3002e01070040
:100a3c00058b800004802000048242001442780060
:100a4c00e14f42000b003a00048b80008402e80066
:100a5c00048020000482420014427800e14f4200de
:100a6c0004003a000041eb00b1c6b30020cdb30046
:100a7c000a010700048b80006c024200048b880082
:100a8c00058b8000f44a2000848f5200020036004f
:100a9c000002eb00048b88000002eb0014079800a6
:100aac0013003700658b8000048020000482420014
:100abc00630020000401780031c4b30020cdb300e2
:100acc0009010700648b80006c024200648b880073
:100adc00658b8000544b2000848f5200020036003e
:100aec0064002000648b8800140020001407980018
:100afc000002eb00348b8800aeff37000000fa00d8
:100b0c000002eb00040888000002eb0024088800b7
:100b1c00843e2000140888002405800004c0a10035
:100b2c0004d0a00004e0a100240588008460a90082
:100b3c00240880000440a0000450a1002408880070
:100b4c009460a80005e1a8000080fa0000000600ef
:100b5c00849fbe00861f78003400f800040020003b
:100b6c00a40188000000fa00241680004422de0054
:100b7c006142620004c2ea00614262000482fb002e
:100b8c00610262004422dd0026168000f5fe2f0073
:100b9c0085026300050272002416880014002000f0
:100bac00348b88008460a9000080fa003400f900be
:100bbc004f0378004f02be0000400600849fbe0029
:100bcc00861f78003400f80004002000a40188007f
:100bdc000400fa000042eb00244798000002eb00ee
:100bec00048b880064002000648b88000002eb00fa
:100bfc00040f780000000000041280006102620003
:100c0c00e00f5200fcff3200441280002447980091
:100c1c00ae42900014c4b30084cf520039003a00a5
:100c2c00140420004412880000000000041280000c
:100c3c0061026200e00f5200fcff3200441280009f
:100c4c00040f780064c5b300244798000002eb0041
:100c5c00040f780014003700148b80009e024200b1
:100c6c000480200004824200144278000482fb00bd
:100c7c00441288000000000004128000610262002f
:100c8c00e00f5200fcff3200148b80001e03420068
:100c9c00441280008442780004cb200004024300fc
:100cac00054a78001e0fe8001e027800eb0f520078
:100cbc00e9ff3600148b80006c024200148b880014
:100ccc00158b8000f44a2000848f520002003600fd
:100cdc000002eb00148b88002e4290000482fb0073
:100cec0044128800000000000412800061026200bf
:100cfc00e00f5200fcff320044128000040f780019
:100d0c0027003700ae42900024c4b30084cf5200b9
:100d1c0020003a0024042000441288000000000047
:100d2c000412800061026200e00f5200fcff3200ee
:100d3c004412800024479800441621001442780085
:100d4c000482fb00441288000000000004128000a2
:100d5c0061026200e00f5200fcff3200441280007e
:100d6c002447980054162100144278000482fb009a
:100d7c00441288000000000004128000610262002e
:100d8c00e00f5200fcff3200441280002447980010
:100d9c0003003700540420004412880040c2a9000c
:100dac00a4052000441288008540a9000080fa00a8
:100dbc003400f9004f0378004f02be0000400600db
:100dcc000000fa0041e2a90041a2a9000002eb00d8
:100ddc00441288008540a9009540a8004405800075
:100dec000480a0000490a00004a0a1004405880089
:100dfc004382a9004362a9004342a9004322a900ef
:100e0c0042c2a9004302a90042a2a9001412800008
:100e1c000420a1000430a1000440a000141288009a
:100e2c00141280000400a1000410a0001412880009
:100e3c000002eb0024128800c842a800c642a90098
:100e4c0041e2a8000080fa00000006000200fa004f
:100e5c00000f78001e02780044128800070037004b
:100e6c00051280000404200004826200e00f52008e
:100e7c00020032000002eb00041288000412800011
:100e8c0061026200e00f5200f5ff32004412800054
:100e9c00040078000080fa00000006000400fa004c
:100eac00004f780011479800224798008efe0700eb
:100ebc00b7fd07001e40780059fe0700b4fd07007f
:100ecc001e40900056fe0700b1fd07002e4090001a
:100edc0053fe0700aefd07008bfe0700acfd0700bc
:100eec000080fa00000006000600fa00004f7800af
:100efc001147980012079800230798007afe070004
:100f0c00a3fd07001e40780045fe0700a0fd07006a
:100f1c001e40900042fe07009dfd07007afe070070
:100f2c009bfd070070fe070099fd07001e4278002c
:100f3c000404a0000440780039fe070094fd07006b
:100f4c002e029000e20120009e0090000400780028
:100f5c00c9fd07006cfe07008dfd07000080fa003c
:100f6c00000006000000fa0000c1eb0091c1b300c4
:100f7c0020cdb300c9ff07000041eb00a1c1b300b5
:100f8c0020cdb300c5ff070082c0b300b1c1b300d0
:100f9c0020cdb300c1ff07000041eb00c1c1b3007d
:100fac0020cdb300bdff07000041eb00d1c1b30061
:100fbc0020cdb300b9ff07000041eb00e1c1b30045
:100fcc0020cdb300b5ff07000041eb00f1c1b30029
:100fdc0020cdb300b1ff07000041eb0001c2b3000c
:100fec0020cdb300adff07000041eb0011c2b300f0
:100ffc0020cdb300a9ff07000041eb0021c2b300d4
:10100c0020cdb300a5ff07000041eb0031c2b300b7
:10101c0020cdb300a1ff07000041eb0041c2b3009b
:10102c0020cdb3009dff07000041eb0051c2b3007f
:10103c0020cdb30099ff07000041eb0061c2b30063
:10104c0020cdb30095ff07000041eb0071c2b30047
:10105c0020cdb30091ff07000041eb0081c2b3002b
:10106c0020cdb3008dff07000041eb0091c2b3000f
:10107c0020cdb30089ff07000041eb00a1c2b300f3
:10108c0020cdb30085ff07000041eb00b1c2b300d7
:10109c0020cdb30081ff07000041eb00c1c2b300bb
:1010ac0020cdb3007dff07000041eb00d1c2b3009f
:1010bc0020cdb30079ff07000041eb00e1c2b30083
:1010cc0020cdb30075ff07000041eb00f1c2b30067
:1010dc0020cdb30071ff07000041eb0001c3b3004a
:1010ec0020cdb3006dff07000041eb0011c3b3002e
:1010fc0020cdb30069ff07000041eb0021c3b30012
:10110c0020cdb30065ff07000041eb0031c3b300f5
:10111c0020cdb30061ff07000041eb0041c3b300d9
:10112c0020cdb3005dff07000041eb0051c3b300bd
:10113c0020cdb30059ff07000041eb0071c3b30091
:10114c0020cdb30055ff07000041eb0081c3b30075
:10115c0020cdb30051ff07000041eb0031c6b300b6
:10116c0020cdb3004dff07000041eb0041c6b3009a
:10117c0020cdb30049ff07000041eb0051c6b3007e
:10118c0020cdb30045ff07000041eb0061c6b30062
:10119c0020cdb30041ff07000041eb0071c6b30046
:1011ac0020cdb3003dff07000041eb0081c6b3002a
:1011bc0020cdb30039ff07000041eb0091c6b3000e
:1011cc0020cdb30035ff07000041eb00a1c6b300f2
:1011dc0020cdb30031ff070022c0b300b1c6b3006d
:1011ec0020cdb3002dff07000041eb00c1c6b300ba
:1011fc0020cdb30029ff07000041eb0041c7b3002d
:10120c0020cdb30025ff07000041eb00b1c6b300b1
:10121c0020cdb30021ff07000080fa00000006007b
:10122c000000fa0061e2a90061a2a9000002eb0033
:10123c00441388008820a9009820a9006382a90083
:10124c006362a9006342a9006322a90062c2a900db
:10125c006302a80062a2a800141380000420a1005d
:10126c000430a1000440a000141388001413800063
:10127c000400a1000410a000141388000002eb006d
:10128c0024138800c842a800c642a90061e2a80045
:10129c000080fa00000006000200fa00000f78003f
:1012ac001e02780044138800000000000413800024
:1012bc0061026200e00f5200fcff32004413800018
:1012cc00040078000080fa00000006000000fa001c
:1012dc0020cab3001c00070000cab3001a000700a4
:1012ec0000ccb3001800070000c4b30016000700c0
:1012fc00c0c2b30014000700e0c2b3001200070024
:10130c00f0c2b3001000070060c2b3000e0007006b
:10131c0050c2b3000c00070010c8b3000a0007004d
:10132c0090c1b30008000700f0c2b300060007002c
:10133c00f0cab3000400070040cab3000200070063
:10134c000080fa00000006000400fa002047980014
:10135c000002eb00040f7800c202a9000002eb00af
:10136c00040f7800010037001e0fe8001e02780001
:10137c00e30f5200fcff36002e4290000482fb006b
:10138c0004007800c4ff07000002eb00040f780093
:10139c00010037001e0fe8001e027800e30f520018
:1013ac00fcff36000080fa00000006000400fa0082
:1013bc00204798000002eb00040f7800c202a8003e
:1013cc000002eb00040f7800010037001e0fe8004c
:1013dc001e027800e30f5200fcff36002e429000f4
:1013ec000482fb0004007800abff07000002eb0056
:1013fc00040f7800010037001e0fe8001e02780071
:10140c00e30f5200fcff36000080fa0000000600db
:10141c000200fa000042eb00044f78001f00370076
:10142c0004cbb3001e42720004407800c6ff0700d4
:10143c000040eb00c4ff070000c1b300c2ff07006f
:10144c000042eb00144798001000370000ceb300a8
:10145c00bdff07009e4278000582fb00c722dd001d
:10146c001e4290000482fb00848242000480200013
:10147c00048242001442780004407800cbff07003d
:10148c001e4290000442e800144798001e4290004f
:10149c00e04f5200edff3d001e4fe8001e42780069
:1014ac00e74f5200deff36000080fa000000060015
:1014bc000400fa00004f780011479800224798006a
:1014cc00334798000cfd07004efc07001e407800c7
:1014dc00e3fc07004bfc07001e409000e0fc0700fb
:1014ec0048fc07002e409000ddfc070045fc07007f
:1014fc003e409000dafc070042fc070006fd0700a6
:10150c0040fc07000080fa00000006000800fa000a
:10151c00204798003147980022079800330798001d
:10152c00f5fc070037fc07002e409000ccfc0700b0
:10153c0034fc07003e409000c9fc070031fc07005a
:10154c00f5fc07002ffc0700ebfc07002dfc070047
:10155c002e4290000404a00004407800c0fc070058
:10156c0028fc0700e20120008e00780020002000fb
:10157c0076fc07009e4278002e029000054a780007
:10158c009e4290003e029000054a7800e2fc070063
:0c159c001cfc07000080fa0000000600a4
:020000040000fa
:1015a800000800006c090000000000006c11000039
:1015b8000200000002000000060000000000000019
:020000040000fa
:020000040002f8
:04aff8005efb0000fc
:020000040000fa
:020000040002f8
:04affc007f3f000093
:00000001FF
