:020000040000fa
:080000000002040000000000f2
:020000040000fa
:100008009a0200009a0200009a0200009a02000078
:100018009a0200009a0200009a0200009a02000068
:100028009a0200009a0200009a0200009a02000058
:100038009a0200009a0200009a0200009a02000048
:020000040000fa
:020000040000fa
:100400000f8020000e7f22000e01880000000000f7
:10041000000020000000e000020032000001200087
:10042000200288000c000700a05e200001002000d0
:1004300011000700000020000000e0000200320070
:100440000000020000000000920302000000000013
:100450000040da000000fe004440a9000000200037
:100460000000e0000300320000002000a00188002e
:100470004440a80000000600910188008000780038
:100480000000eb0015003700e280400032a0b4000d
:100490009101ba00e280400032a0b4009102ba009b
:1004a000e280400032a0b4000002eb00472bde00e7
:1004b000f507b200602ce10004003a000059eb009f
:1004c0008301e900fdff3e00040037006128e100e0
:1004d000010032000082eb00040007001101ba00a5
:1004e0000200e000e8ff3a00000006003159ba00bf
:1004f0008301e9000c0032002159ba008301e900b0
:10050000080032000400e00003003a00e2804000ee
:1005100032a0b400f5ff370011d9ba008301e90019
:10052000faff3a008100e800e180400032a0b40008
:10053000000006000040da000000fe000000fa00a3
:10054000000000003410800061026200e00f5200e1
:10055000fcff3a003410800062026200e00f52009b
:10056000f8ff3a003410800064026200e00f52008d
:10057000f4ff3a003410800068026200e00f52007d
:10058000f0ff3a003410800070026200e00f520069
:10059000ecff3a0045108000040024000482620051
:1005a000e00f5200e7ff3a000080fa00000006006a
:1005b0000800fa00100798002107980032079800f9
:1005c0000002eb00040f7800270037000662a80045
:1005d000080037009e0278003e029000848f52008f
:1005e000020031001e0fe800020037001e029000da
:1005f000210037004400070000427800e04f52001d
:10060000f4ff32000002eb00040f780004108000b9
:10061000844278002e029000054a78002e02900055
:100620000402e800240798001e0290000402e9007a
:10063000140798001e029000e00f520003003a00d9
:1006400006a2a8000682a8000300370006a2a9009f
:100650000682a800000000003410800070026200d2
:10066000e00f5200fcff3a001e029000e00f520023
:10067000d6ff3a000002eb00040078000080fa0088
:10068000000006000200fa00004f78009e42780049
:100690000582fb001410880045108000040820002b
:1006a00004826200e00f52000200320000c2eb0040
:1006b000010037000042eb00044078000080fa009f
:1006c000000006000400fa00000f780011079800ef
:1006d0001e029000241088001e027800341088004a
:1006e0000080fa00000006000000fa000602a800e0
:1006f0000080fa00000006000000fa000642a80090
:100700000080fa00000006000000fa00441080009b
:100710000402d10061426200044078000080fa00c7
:0407200000000600cf
:020000040000fa
:100724000400fa000042eb002447980040a7a90007
:10073400c0c6a900c0c2a900c002a900c022a90065
:10074400c0a2a900c0e2a800d2c2a800d2e2a800b8
:10075400d3a2a8003101200000002800d8ff070020
:1007640070000700c402a900c4c2a900c4a2a90061
:10077400c422a90015168000040820000482620027
:10078400e00f520008003a00c422a8000e82e800dc
:100794001300200004017800b1c6b30020cdb300db
:1007a4004100070024003700a5168000040420003f
:1007b40004826200e00f520006003a00c4c2a8009e
:1007c4000041eb00b1c6b30020cdb3002300070005
:1007d40019003700a516800004002200048262007c
:1007e400e00f520008003a00c402a8000e82e8009c
:1007f400230020000401780011c4b30020cdb3000d
:10080400290007000c003700a5168000040820000a
:1008140004826200e00f520007003a00c4a2a8005c
:100824000e82e8002300200004017800b1c3b30065
:1008340020cdb3001c0007000002eb00040f780079
:10084400010037001e0fe800f4342c009e027800eb
:10085400848f5200fbff3600c2ff37000400fa0009
:10086400004f780011479800224798009dff070029
:1008740031ff07001e40780081ff07002eff0700ac
:100884001e4090007eff07002bff07002e409000c3
:100894007bff070028ff070096ff070026ff0700dd
:1008a4000080fa00000006000600fa00004f7800fd
:1008b40011479800120798002307980089ff070042
:1008c4001dff07001e4078006dff07001aff070098
:1008d4001e4090006aff070017ff070085ff07000e
:1008e40015ff07007fff070013ff07001e42780073
:1008f4000404a0000440780061ff07000eff070015
:100904002e029000e20120009e0090000400780076
:1009140026ff070077ff070007ff07000080fa00a3
:10092400000006000000fa0072c0b30091c1b300d9
:1009340020cdb300c9ff07000041eb00a1c1b30003
:1009440020cdb300c5ff070082c0b300b1c1b3001e
:1009540020cdb300c1ff07000041eb00c1c1b300cb
:1009640020cdb300bdff07000041eb00d1c1b300af
:1009740020cdb300b9ff07000041eb00e1c1b30093
:1009840020cdb300b5ff07000041eb00f1c1b30077
:1009940020cdb300b1ff07000041eb0001c2b3005a
:1009a40020cdb300adff07000041eb0011c2b3003e
:1009b40020cdb300a9ff07000041eb0021c2b30022
:1009c40020cdb300a5ff07000041eb0031c2b30006
:1009d40020cdb300a1ff07000041eb0041c2b300ea
:1009e40020cdb3009dff07000041eb0051c2b300ce
:1009f40020cdb30099ff07000041eb0061c2b300b2
:100a040020cdb30095ff07000041eb0071c2b30095
:100a140020cdb30091ff07000041eb0081c2b30079
:100a240020cdb3008dff07000041eb0091c2b3005d
:100a340020cdb30089ff07000041eb00a1c2b30041
:100a440020cdb30085ff07000041eb00b1c2b30025
:100a540020cdb30081ff07000041eb00c1c2b30009
:100a640020cdb3007dff07000041eb00d1c2b300ed
:100a740020cdb30079ff07000041eb00e1c2b300d1
:100a840020cdb30075ff07000041eb00f1c2b300b5
:100a940020cdb30071ff07000041eb0001c3b30098
:100aa40020cdb3006dff07000041eb0011c3b3007c
:100ab40020cdb30069ff07000041eb0021c3b30060
:100ac40020cdb30065ff07000041eb0031c3b30044
:100ad40020cdb30061ff07000041eb0041c3b30028
:100ae40020cdb3005dff07000041eb0051c3b3000c
:100af40020cdb30059ff07000041eb0071c3b300e0
:100b040020cdb30055ff07000041eb0081c3b300c3
:100b140020cdb30051ff07000041eb0031c6b30004
:100b240020cdb3004dff07000041eb0041c6b300e8
:100b340020cdb30049ff07000041eb0051c6b300cc
:100b440020cdb30045ff07000041eb0061c6b300b0
:100b540020cdb30041ff07000041eb0071c6b30094
:100b640020cdb3003dff07000041eb0081c6b30078
:100b740020cdb30039ff07000041eb0091c6b3005c
:100b840020cdb30035ff07000041eb00a1c6b30040
:100b940020cdb30031ff070022c0b300b1c6b300bb
:100ba40020cdb3002dff07000041eb00c1c6b30008
:100bb40020cdb30029ff07000041eb0041c7b3007b
:100bc40020cdb30025ff07000080fa0000000600d6
:020000040000fa
:040bd400000000001d
:020000040000fa
:020000040002f8
:04aff800befb00009c
:020000040000fa
:020000040002f8
:04affc007f3f000093
:00000001FF
